{
  "contracts/otc/1conf/OtcEscrow.sol": {
    "OtcEscrow": {
      "abi": [
        {
          "inputs": [
            {
              "internalType": "address",
              "name": "_buyer",
              "type": "address"
            },
            {
              "internalType": "address",
              "name": "_seller",
              "type": "address"
            },
            {
              "internalType": "address",
              "name": "_vestingContract",
              "type": "address"
            },
            {
              "internalType": "uint256",
              "name": "_vestingStart",
              "type": "uint256"
            },
            {
              "internalType": "uint256",
              "name": "_vestingCliff",
              "type": "uint256"
            },
            {
              "internalType": "uint256",
              "name": "_vestingEnd",
              "type": "uint256"
            },
            {
              "internalType": "uint256",
              "name": "_weth_amount",
              "type": "uint256"
            },
            {
              "internalType": "uint256",
              "name": "_degen_amount",
              "type": "uint256"
            },
            {
              "internalType": "address",
              "name": "_wethAddress",
              "type": "address"
            },
            {
              "internalType": "address",
              "name": "_degenAddress",
              "type": "address"
            }
          ],
          "stateMutability": "nonpayable",
          "type": "constructor"
        },
        {
          "inputs": [
            {
              "internalType": "address",
              "name": "target",
              "type": "address"
            }
          ],
          "name": "AddressEmptyCode",
          "type": "error"
        },
        {
          "inputs": [
            {
              "internalType": "address",
              "name": "account",
              "type": "address"
            }
          ],
          "name": "AddressInsufficientBalance",
          "type": "error"
        },
        {
          "inputs": [],
          "name": "FailedInnerCall",
          "type": "error"
        },
        {
          "inputs": [],
          "name": "InsufficientDegen",
          "type": "error"
        },
        {
          "inputs": [
            {
              "internalType": "address",
              "name": "owner",
              "type": "address"
            }
          ],
          "name": "OwnableInvalidOwner",
          "type": "error"
        },
        {
          "inputs": [
            {
              "internalType": "address",
              "name": "account",
              "type": "address"
            }
          ],
          "name": "OwnableUnauthorizedAccount",
          "type": "error"
        },
        {
          "inputs": [
            {
              "internalType": "address",
              "name": "token",
              "type": "address"
            }
          ],
          "name": "SafeERC20FailedOperation",
          "type": "error"
        },
        {
          "inputs": [],
          "name": "SwapAlreadyExecuted",
          "type": "error"
        },
        {
          "anonymous": false,
          "inputs": [
            {
              "indexed": true,
              "internalType": "address",
              "name": "previousOwner",
              "type": "address"
            },
            {
              "indexed": true,
              "internalType": "address",
              "name": "newOwner",
              "type": "address"
            }
          ],
          "name": "OwnershipTransferred",
          "type": "event"
        },
        {
          "anonymous": false,
          "inputs": [
            {
              "indexed": true,
              "internalType": "address",
              "name": "vesting",
              "type": "address"
            }
          ],
          "name": "VestingDeployed",
          "type": "event"
        },
        {
          "inputs": [],
          "name": "BUYER",
          "outputs": [
            {
              "internalType": "address",
              "name": "",
              "type": "address"
            }
          ],
          "stateMutability": "view",
          "type": "function"
        },
        {
          "inputs": [],
          "name": "DEGEN",
          "outputs": [
            {
              "internalType": "address",
              "name": "",
              "type": "address"
            }
          ],
          "stateMutability": "view",
          "type": "function"
        },
        {
          "inputs": [],
          "name": "DEGEN_AMOUNT",
          "outputs": [
            {
              "internalType": "uint256",
              "name": "",
              "type": "uint256"
            }
          ],
          "stateMutability": "view",
          "type": "function"
        },
        {
          "inputs": [],
          "name": "SELLER",
          "outputs": [
            {
              "internalType": "address",
              "name": "",
              "type": "address"
            }
          ],
          "stateMutability": "view",
          "type": "function"
        },
        {
          "inputs": [],
          "name": "VESTING_CLIFF",
          "outputs": [
            {
              "internalType": "uint256",
              "name": "",
              "type": "uint256"
            }
          ],
          "stateMutability": "view",
          "type": "function"
        },
        {
          "inputs": [],
          "name": "VESTING_CONTRACT",
          "outputs": [
            {
              "internalType": "address",
              "name": "",
              "type": "address"
            }
          ],
          "stateMutability": "view",
          "type": "function"
        },
        {
          "inputs": [],
          "name": "VESTING_END",
          "outputs": [
            {
              "internalType": "uint256",
              "name": "",
              "type": "uint256"
            }
          ],
          "stateMutability": "view",
          "type": "function"
        },
        {
          "inputs": [],
          "name": "VESTING_START",
          "outputs": [
            {
              "internalType": "uint256",
              "name": "",
              "type": "uint256"
            }
          ],
          "stateMutability": "view",
          "type": "function"
        },
        {
          "inputs": [],
          "name": "WETH",
          "outputs": [
            {
              "internalType": "address",
              "name": "",
              "type": "address"
            }
          ],
          "stateMutability": "view",
          "type": "function"
        },
        {
          "inputs": [],
          "name": "WETH_AMOUNT",
          "outputs": [
            {
              "internalType": "uint256",
              "name": "",
              "type": "uint256"
            }
          ],
          "stateMutability": "view",
          "type": "function"
        },
        {
          "inputs": [],
          "name": "hasRun",
          "outputs": [
            {
              "internalType": "bool",
              "name": "",
              "type": "bool"
            }
          ],
          "stateMutability": "view",
          "type": "function"
        },
        {
          "inputs": [],
          "name": "owner",
          "outputs": [
            {
              "internalType": "address",
              "name": "",
              "type": "address"
            }
          ],
          "stateMutability": "view",
          "type": "function"
        },
        {
          "inputs": [],
          "name": "recoverWeth",
          "outputs": [],
          "stateMutability": "nonpayable",
          "type": "function"
        },
        {
          "inputs": [],
          "name": "renounceOwnership",
          "outputs": [],
          "stateMutability": "nonpayable",
          "type": "function"
        },
        {
          "inputs": [],
          "name": "revoke",
          "outputs": [],
          "stateMutability": "nonpayable",
          "type": "function"
        },
        {
          "inputs": [],
          "name": "swap",
          "outputs": [],
          "stateMutability": "nonpayable",
          "type": "function"
        },
        {
          "inputs": [
            {
              "internalType": "address",
              "name": "newOwner",
              "type": "address"
            }
          ],
          "name": "transferOwnership",
          "outputs": [],
          "stateMutability": "nonpayable",
          "type": "function"
        }
      ],
      "evm": {
        "bytecode": {
          "linkReferences": {},
          "object": "6101c06040523480156200001257600080fd5b506040516200111738038062001117833981016040819052620000359162000126565b33806200005c57604051631e4fbdf760e01b81526000600482015260240160405180910390fd5b6200006781620000b9565b506001600160a01b03998a1660c05297891660e05295881661010052610120949094526101609290925261014052610180526101a05282166080521660a0526000805460ff60a01b19169055620001c8565b600080546001600160a01b038381166001600160a01b0319831681178455604051919092169283917f8be0079c531659141344cd1fd0a4f28419497f9722a3daafe3b4186f6b6457e09190a35050565b80516001600160a01b03811681146200012157600080fd5b919050565b6000806000806000806000806000806101408b8d0312156200014757600080fd5b620001528b62000109565b99506200016260208c0162000109565b98506200017260408c0162000109565b975060608b0151965060808b0151955060a08b0151945060c08b0151935060e08b01519250620001a66101008c0162000109565b9150620001b76101208c0162000109565b90509295989b9194979a5092959850565b60805160a05160c05160e05161010051610120516101405161016051610180516101a051610e55620002c2600039600081816101250152818161044401526105fd01526000818161020b0152818161057c015261067e015260006101ab015260006102fc015260006102d501526000818161015f015281816105dc01526106bc0152600081816102ae0152818161065d015261091b0152600081816102580152818161055a01526107fc0152600081816101d20152818161047b015281816105ba0152818161085d01526108f901526000818161027f015281816105380152818161063b0152818161073e01526107da0152610e556000f3fe608060405234801561001057600080fd5b506004361061011b5760003560e01c806393f519f1116100b2578063bca93eba11610081578063e4e2b44811610066578063e4e2b448146102f7578063e94c16141461031e578063f2fde38b1461035357600080fd5b8063bca93eba146102a9578063cfd11c4f146102d057600080fd5b806393f519f11461024b578063a8fa298714610253578063ad5c46481461027a578063b6549f75146102a157600080fd5b8063715018a6116100ee578063715018a6146101f45780638119c065146101fe57806383464e22146102065780638da5cb5b1461022d57600080fd5b806314df5c1d146101205780631d255df11461015a57806363f3dbe5146101a65780636c639e75146101cd575b600080fd5b6101477f000000000000000000000000000000000000000000000000000000000000000081565b6040519081526020015b60405180910390f35b6101817f000000000000000000000000000000000000000000000000000000000000000081565b60405173ffffffffffffffffffffffffffffffffffffffff9091168152602001610151565b6101477f000000000000000000000000000000000000000000000000000000000000000081565b6101817f000000000000000000000000000000000000000000000000000000000000000081565b6101fc610366565b005b6101fc61037a565b6101477f000000000000000000000000000000000000000000000000000000000000000081565b60005473ffffffffffffffffffffffffffffffffffffffff16610181565b6101fc610705565b6101817f000000000000000000000000000000000000000000000000000000000000000081565b6101817f000000000000000000000000000000000000000000000000000000000000000081565b6101fc610824565b6101817f000000000000000000000000000000000000000000000000000000000000000081565b6101477f000000000000000000000000000000000000000000000000000000000000000081565b6101477f000000000000000000000000000000000000000000000000000000000000000081565b6000546103439074010000000000000000000000000000000000000000900460ff1681565b6040519015158152602001610151565b6101fc610361366004610d7f565b610940565b61036e6109a6565b61037860006109f9565b565b6103826109a6565b60005474010000000000000000000000000000000000000000900460ff16156103d7576040517fb1137c4c00000000000000000000000000000000000000000000000000000000815260040160405180910390fd5b600080547fffffffffffffffffffffff00ffffffffffffffffffffffffffffffffffffffff16740100000000000000000000000000000000000000001790556040517f70a082310000000000000000000000000000000000000000000000000000000081523060048201527f00000000000000000000000000000000000000000000000000000000000000009073ffffffffffffffffffffffffffffffffffffffff7f000000000000000000000000000000000000000000000000000000000000000016906370a0823190602401602060405180830381865afa1580156104c2573d6000803e3d6000fd5b505050506040513d601f19601f820116820180604052508101906104e69190610db5565b101561051e576040517fc7a7eb9c00000000000000000000000000000000000000000000000000000000815260040160405180910390fd5b6105a073ffffffffffffffffffffffffffffffffffffffff7f0000000000000000000000000000000000000000000000000000000000000000167f0000000000000000000000000000000000000000000000000000000000000000307f0000000000000000000000000000000000000000000000000000000000000000610a6e565b61062173ffffffffffffffffffffffffffffffffffffffff7f0000000000000000000000000000000000000000000000000000000000000000167f00000000000000000000000000000000000000000000000000000000000000007f0000000000000000000000000000000000000000000000000000000000000000610afd565b6106a273ffffffffffffffffffffffffffffffffffffffff7f0000000000000000000000000000000000000000000000000000000000000000167f00000000000000000000000000000000000000000000000000000000000000007f0000000000000000000000000000000000000000000000000000000000000000610afd565b60405173ffffffffffffffffffffffffffffffffffffffff7f000000000000000000000000000000000000000000000000000000000000000016907fdabc5c96afbe4ae171d0e702a6fe2867f8cd78392c4a5863a07e2b786c38d4d690600090a2565b61070d6109a6565b6040517f70a082310000000000000000000000000000000000000000000000000000000081523060048201526000907f000000000000000000000000000000000000000000000000000000000000000073ffffffffffffffffffffffffffffffffffffffff16906370a0823190602401602060405180830381865afa15801561079a573d6000803e3d6000fd5b505050506040513d601f19601f820116820180604052508101906107be9190610db5565b905061082173ffffffffffffffffffffffffffffffffffffffff7f0000000000000000000000000000000000000000000000000000000000000000167f000000000000000000000000000000000000000000000000000000000000000083610afd565b50565b61082c6109a6565b6040517f70a082310000000000000000000000000000000000000000000000000000000081523060048201526000907f000000000000000000000000000000000000000000000000000000000000000073ffffffffffffffffffffffffffffffffffffffff16906370a0823190602401602060405180830381865afa1580156108b9573d6000803e3d6000fd5b505050506040513d601f19601f820116820180604052508101906108dd9190610db5565b905061082173ffffffffffffffffffffffffffffffffffffffff7f0000000000000000000000000000000000000000000000000000000000000000167f000000000000000000000000000000000000000000000000000000000000000083610afd565b6109486109a6565b73ffffffffffffffffffffffffffffffffffffffff811661099d576040517f1e4fbdf7000000000000000000000000000000000000000000000000000000008152600060048201526024015b60405180910390fd5b610821816109f9565b60005473ffffffffffffffffffffffffffffffffffffffff163314610378576040517f118cdaa7000000000000000000000000000000000000000000000000000000008152336004820152602401610994565b6000805473ffffffffffffffffffffffffffffffffffffffff8381167fffffffffffffffffffffffff0000000000000000000000000000000000000000831681178455604051919092169283917f8be0079c531659141344cd1fd0a4f28419497f9722a3daafe3b4186f6b6457e09190a35050565b60405173ffffffffffffffffffffffffffffffffffffffff8481166024830152838116604483015260648201839052610af79186918216906323b872dd906084015b604051602081830303815290604052915060e01b6020820180517bffffffffffffffffffffffffffffffffffffffffffffffffffffffff8381831617835250505050610b40565b50505050565b60405173ffffffffffffffffffffffffffffffffffffffff838116602483015260448201839052610b3b91859182169063a9059cbb90606401610ab0565b505050565b6000610b6273ffffffffffffffffffffffffffffffffffffffff841683610bd6565b90508051600014158015610b87575080806020019051810190610b859190610dce565b155b15610b3b576040517f5274afe700000000000000000000000000000000000000000000000000000000815273ffffffffffffffffffffffffffffffffffffffff84166004820152602401610994565b6060610be483836000610beb565b9392505050565b606081471015610c29576040517fcd786059000000000000000000000000000000000000000000000000000000008152306004820152602401610994565b6000808573ffffffffffffffffffffffffffffffffffffffff168486604051610c529190610df0565b60006040518083038185875af1925050503d8060008114610c8f576040519150601f19603f3d011682016040523d82523d6000602084013e610c94565b606091505b5091509150610ca4868383610cae565b9695505050505050565b606082610cc357610cbe82610d3d565b610be4565b8151158015610ce7575073ffffffffffffffffffffffffffffffffffffffff84163b155b15610d36576040517f9996b31500000000000000000000000000000000000000000000000000000000815273ffffffffffffffffffffffffffffffffffffffff85166004820152602401610994565b5080610be4565b805115610d4d5780518082602001fd5b6040517f1425ea4200000000000000000000000000000000000000000000000000000000815260040160405180910390fd5b600060208284031215610d9157600080fd5b813573ffffffffffffffffffffffffffffffffffffffff81168114610be457600080fd5b600060208284031215610dc757600080fd5b5051919050565b600060208284031215610de057600080fd5b81518015158114610be457600080fd5b6000825160005b81811015610e115760208186018101518583015201610df7565b50600092019182525091905056fea2646970667358221220f554856591be9eb95af550e3b0ac917dc7152921f37e66b1e912599261e3219964736f6c63430008140033",
          "opcodes": "PUSH2 0x1C0 PUSH1 0x40 MSTORE CALLVALUE DUP1 ISZERO PUSH3 0x12 JUMPI PUSH1 0x0 DUP1 REVERT JUMPDEST POP PUSH1 0x40 MLOAD PUSH3 0x1117 CODESIZE SUB DUP1 PUSH3 0x1117 DUP4 CODECOPY DUP2 ADD PUSH1 0x40 DUP2 SWAP1 MSTORE PUSH3 0x35 SWAP2 PUSH3 0x126 JUMP JUMPDEST CALLER DUP1 PUSH3 0x5C JUMPI PUSH1 0x40 MLOAD PUSH4 0x1E4FBDF7 PUSH1 0xE0 SHL DUP2 MSTORE PUSH1 0x0 PUSH1 0x4 DUP3 ADD MSTORE PUSH1 0x24 ADD PUSH1 0x40 MLOAD DUP1 SWAP2 SUB SWAP1 REVERT JUMPDEST PUSH3 0x67 DUP2 PUSH3 0xB9 JUMP JUMPDEST POP PUSH1 0x1 PUSH1 0x1 PUSH1 0xA0 SHL SUB SWAP10 DUP11 AND PUSH1 0xC0 MSTORE SWAP8 DUP10 AND PUSH1 0xE0 MSTORE SWAP6 DUP9 AND PUSH2 0x100 MSTORE PUSH2 0x120 SWAP5 SWAP1 SWAP5 MSTORE PUSH2 0x160 SWAP3 SWAP1 SWAP3 MSTORE PUSH2 0x140 MSTORE PUSH2 0x180 MSTORE PUSH2 0x1A0 MSTORE DUP3 AND PUSH1 0x80 MSTORE AND PUSH1 0xA0 MSTORE PUSH1 0x0 DUP1 SLOAD PUSH1 0xFF PUSH1 0xA0 SHL NOT AND SWAP1 SSTORE PUSH3 0x1C8 JUMP JUMPDEST PUSH1 0x0 DUP1 SLOAD PUSH1 0x1 PUSH1 0x1 PUSH1 0xA0 SHL SUB DUP4 DUP2 AND PUSH1 0x1 PUSH1 0x1 PUSH1 0xA0 SHL SUB NOT DUP4 AND DUP2 OR DUP5 SSTORE PUSH1 0x40 MLOAD SWAP2 SWAP1 SWAP3 AND SWAP3 DUP4 SWAP2 PUSH32 0x8BE0079C531659141344CD1FD0A4F28419497F9722A3DAAFE3B4186F6B6457E0 SWAP2 SWAP1 LOG3 POP POP JUMP JUMPDEST DUP1 MLOAD PUSH1 0x1 PUSH1 0x1 PUSH1 0xA0 SHL SUB DUP2 AND DUP2 EQ PUSH3 0x121 JUMPI PUSH1 0x0 DUP1 REVERT JUMPDEST SWAP2 SWAP1 POP JUMP JUMPDEST PUSH1 0x0 DUP1 PUSH1 0x0 DUP1 PUSH1 0x0 DUP1 PUSH1 0x0 DUP1 PUSH1 0x0 DUP1 PUSH2 0x140 DUP12 DUP14 SUB SLT ISZERO PUSH3 0x147 JUMPI PUSH1 0x0 DUP1 REVERT JUMPDEST PUSH3 0x152 DUP12 PUSH3 0x109 JUMP JUMPDEST SWAP10 POP PUSH3 0x162 PUSH1 0x20 DUP13 ADD PUSH3 0x109 JUMP JUMPDEST SWAP9 POP PUSH3 0x172 PUSH1 0x40 DUP13 ADD PUSH3 0x109 JUMP JUMPDEST SWAP8 POP PUSH1 0x60 DUP12 ADD MLOAD SWAP7 POP PUSH1 0x80 DUP12 ADD MLOAD SWAP6 POP PUSH1 0xA0 DUP12 ADD MLOAD SWAP5 POP PUSH1 0xC0 DUP12 ADD MLOAD SWAP4 POP PUSH1 0xE0 DUP12 ADD MLOAD SWAP3 POP PUSH3 0x1A6 PUSH2 0x100 DUP13 ADD PUSH3 0x109 JUMP JUMPDEST SWAP2 POP PUSH3 0x1B7 PUSH2 0x120 DUP13 ADD PUSH3 0x109 JUMP JUMPDEST SWAP1 POP SWAP3 SWAP6 SWAP9 SWAP12 SWAP2 SWAP5 SWAP8 SWAP11 POP SWAP3 SWAP6 SWAP9 POP JUMP JUMPDEST PUSH1 0x80 MLOAD PUSH1 0xA0 MLOAD PUSH1 0xC0 MLOAD PUSH1 0xE0 MLOAD PUSH2 0x100 MLOAD PUSH2 0x120 MLOAD PUSH2 0x140 MLOAD PUSH2 0x160 MLOAD PUSH2 0x180 MLOAD PUSH2 0x1A0 MLOAD PUSH2 0xE55 PUSH3 0x2C2 PUSH1 0x0 CODECOPY PUSH1 0x0 DUP2 DUP2 PUSH2 0x125 ADD MSTORE DUP2 DUP2 PUSH2 0x444 ADD MSTORE PUSH2 0x5FD ADD MSTORE PUSH1 0x0 DUP2 DUP2 PUSH2 0x20B ADD MSTORE DUP2 DUP2 PUSH2 0x57C ADD MSTORE PUSH2 0x67E ADD MSTORE PUSH1 0x0 PUSH2 0x1AB ADD MSTORE PUSH1 0x0 PUSH2 0x2FC ADD MSTORE PUSH1 0x0 PUSH2 0x2D5 ADD MSTORE PUSH1 0x0 DUP2 DUP2 PUSH2 0x15F ADD MSTORE DUP2 DUP2 PUSH2 0x5DC ADD MSTORE PUSH2 0x6BC ADD MSTORE PUSH1 0x0 DUP2 DUP2 PUSH2 0x2AE ADD MSTORE DUP2 DUP2 PUSH2 0x65D ADD MSTORE PUSH2 0x91B ADD MSTORE PUSH1 0x0 DUP2 DUP2 PUSH2 0x258 ADD MSTORE DUP2 DUP2 PUSH2 0x55A ADD MSTORE PUSH2 0x7FC ADD MSTORE PUSH1 0x0 DUP2 DUP2 PUSH2 0x1D2 ADD MSTORE DUP2 DUP2 PUSH2 0x47B ADD MSTORE DUP2 DUP2 PUSH2 0x5BA ADD MSTORE DUP2 DUP2 PUSH2 0x85D ADD MSTORE PUSH2 0x8F9 ADD MSTORE PUSH1 0x0 DUP2 DUP2 PUSH2 0x27F ADD MSTORE DUP2 DUP2 PUSH2 0x538 ADD MSTORE DUP2 DUP2 PUSH2 0x63B ADD MSTORE DUP2 DUP2 PUSH2 0x73E ADD MSTORE PUSH2 0x7DA ADD MSTORE PUSH2 0xE55 PUSH1 0x0 RETURN INVALID PUSH1 0x80 PUSH1 0x40 MSTORE CALLVALUE DUP1 ISZERO PUSH2 0x10 JUMPI PUSH1 0x0 DUP1 REVERT JUMPDEST POP PUSH1 0x4 CALLDATASIZE LT PUSH2 0x11B JUMPI PUSH1 0x0 CALLDATALOAD PUSH1 0xE0 SHR DUP1 PUSH4 0x93F519F1 GT PUSH2 0xB2 JUMPI DUP1 PUSH4 0xBCA93EBA GT PUSH2 0x81 JUMPI DUP1 PUSH4 0xE4E2B448 GT PUSH2 0x66 JUMPI DUP1 PUSH4 0xE4E2B448 EQ PUSH2 0x2F7 JUMPI DUP1 PUSH4 0xE94C1614 EQ PUSH2 0x31E JUMPI DUP1 PUSH4 0xF2FDE38B EQ PUSH2 0x353 JUMPI PUSH1 0x0 DUP1 REVERT JUMPDEST DUP1 PUSH4 0xBCA93EBA EQ PUSH2 0x2A9 JUMPI DUP1 PUSH4 0xCFD11C4F EQ PUSH2 0x2D0 JUMPI PUSH1 0x0 DUP1 REVERT JUMPDEST DUP1 PUSH4 0x93F519F1 EQ PUSH2 0x24B JUMPI DUP1 PUSH4 0xA8FA2987 EQ PUSH2 0x253 JUMPI DUP1 PUSH4 0xAD5C4648 EQ PUSH2 0x27A JUMPI DUP1 PUSH4 0xB6549F75 EQ PUSH2 0x2A1 JUMPI PUSH1 0x0 DUP1 REVERT JUMPDEST DUP1 PUSH4 0x715018A6 GT PUSH2 0xEE JUMPI DUP1 PUSH4 0x715018A6 EQ PUSH2 0x1F4 JUMPI DUP1 PUSH4 0x8119C065 EQ PUSH2 0x1FE JUMPI DUP1 PUSH4 0x83464E22 EQ PUSH2 0x206 JUMPI DUP1 PUSH4 0x8DA5CB5B EQ PUSH2 0x22D JUMPI PUSH1 0x0 DUP1 REVERT JUMPDEST DUP1 PUSH4 0x14DF5C1D EQ PUSH2 0x120 JUMPI DUP1 PUSH4 0x1D255DF1 EQ PUSH2 0x15A JUMPI DUP1 PUSH4 0x63F3DBE5 EQ PUSH2 0x1A6 JUMPI DUP1 PUSH4 0x6C639E75 EQ PUSH2 0x1CD JUMPI JUMPDEST PUSH1 0x0 DUP1 REVERT JUMPDEST PUSH2 0x147 PUSH32 0x0 DUP2 JUMP JUMPDEST PUSH1 0x40 MLOAD SWAP1 DUP2 MSTORE PUSH1 0x20 ADD JUMPDEST PUSH1 0x40 MLOAD DUP1 SWAP2 SUB SWAP1 RETURN JUMPDEST PUSH2 0x181 PUSH32 0x0 DUP2 JUMP JUMPDEST PUSH1 0x40 MLOAD PUSH20 0xFFFFFFFFFFFFFFFFFFFFFFFFFFFFFFFFFFFFFFFF SWAP1 SWAP2 AND DUP2 MSTORE PUSH1 0x20 ADD PUSH2 0x151 JUMP JUMPDEST PUSH2 0x147 PUSH32 0x0 DUP2 JUMP JUMPDEST PUSH2 0x181 PUSH32 0x0 DUP2 JUMP JUMPDEST PUSH2 0x1FC PUSH2 0x366 JUMP JUMPDEST STOP JUMPDEST PUSH2 0x1FC PUSH2 0x37A JUMP JUMPDEST PUSH2 0x147 PUSH32 0x0 DUP2 JUMP JUMPDEST PUSH1 0x0 SLOAD PUSH20 0xFFFFFFFFFFFFFFFFFFFFFFFFFFFFFFFFFFFFFFFF AND PUSH2 0x181 JUMP JUMPDEST PUSH2 0x1FC PUSH2 0x705 JUMP JUMPDEST PUSH2 0x181 PUSH32 0x0 DUP2 JUMP JUMPDEST PUSH2 0x181 PUSH32 0x0 DUP2 JUMP JUMPDEST PUSH2 0x1FC PUSH2 0x824 JUMP JUMPDEST PUSH2 0x181 PUSH32 0x0 DUP2 JUMP JUMPDEST PUSH2 0x147 PUSH32 0x0 DUP2 JUMP JUMPDEST PUSH2 0x147 PUSH32 0x0 DUP2 JUMP JUMPDEST PUSH1 0x0 SLOAD PUSH2 0x343 SWAP1 PUSH21 0x10000000000000000000000000000000000000000 SWAP1 DIV PUSH1 0xFF AND DUP2 JUMP JUMPDEST PUSH1 0x40 MLOAD SWAP1 ISZERO ISZERO DUP2 MSTORE PUSH1 0x20 ADD PUSH2 0x151 JUMP JUMPDEST PUSH2 0x1FC PUSH2 0x361 CALLDATASIZE PUSH1 0x4 PUSH2 0xD7F JUMP JUMPDEST PUSH2 0x940 JUMP JUMPDEST PUSH2 0x36E PUSH2 0x9A6 JUMP JUMPDEST PUSH2 0x378 PUSH1 0x0 PUSH2 0x9F9 JUMP JUMPDEST JUMP JUMPDEST PUSH2 0x382 PUSH2 0x9A6 JUMP JUMPDEST PUSH1 0x0 SLOAD PUSH21 0x10000000000000000000000000000000000000000 SWAP1 DIV PUSH1 0xFF AND ISZERO PUSH2 0x3D7 JUMPI PUSH1 0x40 MLOAD PUSH32 0xB1137C4C00000000000000000000000000000000000000000000000000000000 DUP2 MSTORE PUSH1 0x4 ADD PUSH1 0x40 MLOAD DUP1 SWAP2 SUB SWAP1 REVERT JUMPDEST PUSH1 0x0 DUP1 SLOAD PUSH32 0xFFFFFFFFFFFFFFFFFFFFFF00FFFFFFFFFFFFFFFFFFFFFFFFFFFFFFFFFFFFFFFF AND PUSH21 0x10000000000000000000000000000000000000000 OR SWAP1 SSTORE PUSH1 0x40 MLOAD PUSH32 0x70A0823100000000000000000000000000000000000000000000000000000000 DUP2 MSTORE ADDRESS PUSH1 0x4 DUP3 ADD MSTORE PUSH32 0x0 SWAP1 PUSH20 0xFFFFFFFFFFFFFFFFFFFFFFFFFFFFFFFFFFFFFFFF PUSH32 0x0 AND SWAP1 PUSH4 0x70A08231 SWAP1 PUSH1 0x24 ADD PUSH1 0x20 PUSH1 0x40 MLOAD DUP1 DUP4 SUB DUP2 DUP7 GAS STATICCALL ISZERO DUP1 ISZERO PUSH2 0x4C2 JUMPI RETURNDATASIZE PUSH1 0x0 DUP1 RETURNDATACOPY RETURNDATASIZE PUSH1 0x0 REVERT JUMPDEST POP POP POP POP PUSH1 0x40 MLOAD RETURNDATASIZE PUSH1 0x1F NOT PUSH1 0x1F DUP3 ADD AND DUP3 ADD DUP1 PUSH1 0x40 MSTORE POP DUP2 ADD SWAP1 PUSH2 0x4E6 SWAP2 SWAP1 PUSH2 0xDB5 JUMP JUMPDEST LT ISZERO PUSH2 0x51E JUMPI PUSH1 0x40 MLOAD PUSH32 0xC7A7EB9C00000000000000000000000000000000000000000000000000000000 DUP2 MSTORE PUSH1 0x4 ADD PUSH1 0x40 MLOAD DUP1 SWAP2 SUB SWAP1 REVERT JUMPDEST PUSH2 0x5A0 PUSH20 0xFFFFFFFFFFFFFFFFFFFFFFFFFFFFFFFFFFFFFFFF PUSH32 0x0 AND PUSH32 0x0 ADDRESS PUSH32 0x0 PUSH2 0xA6E JUMP JUMPDEST PUSH2 0x621 PUSH20 0xFFFFFFFFFFFFFFFFFFFFFFFFFFFFFFFFFFFFFFFF PUSH32 0x0 AND PUSH32 0x0 PUSH32 0x0 PUSH2 0xAFD JUMP JUMPDEST PUSH2 0x6A2 PUSH20 0xFFFFFFFFFFFFFFFFFFFFFFFFFFFFFFFFFFFFFFFF PUSH32 0x0 AND PUSH32 0x0 PUSH32 0x0 PUSH2 0xAFD JUMP JUMPDEST PUSH1 0x40 MLOAD PUSH20 0xFFFFFFFFFFFFFFFFFFFFFFFFFFFFFFFFFFFFFFFF PUSH32 0x0 AND SWAP1 PUSH32 0xDABC5C96AFBE4AE171D0E702A6FE2867F8CD78392C4A5863A07E2B786C38D4D6 SWAP1 PUSH1 0x0 SWAP1 LOG2 JUMP JUMPDEST PUSH2 0x70D PUSH2 0x9A6 JUMP JUMPDEST PUSH1 0x40 MLOAD PUSH32 0x70A0823100000000000000000000000000000000000000000000000000000000 DUP2 MSTORE ADDRESS PUSH1 0x4 DUP3 ADD MSTORE PUSH1 0x0 SWAP1 PUSH32 0x0 PUSH20 0xFFFFFFFFFFFFFFFFFFFFFFFFFFFFFFFFFFFFFFFF AND SWAP1 PUSH4 0x70A08231 SWAP1 PUSH1 0x24 ADD PUSH1 0x20 PUSH1 0x40 MLOAD DUP1 DUP4 SUB DUP2 DUP7 GAS STATICCALL ISZERO DUP1 ISZERO PUSH2 0x79A JUMPI RETURNDATASIZE PUSH1 0x0 DUP1 RETURNDATACOPY RETURNDATASIZE PUSH1 0x0 REVERT JUMPDEST POP POP POP POP PUSH1 0x40 MLOAD RETURNDATASIZE PUSH1 0x1F NOT PUSH1 0x1F DUP3 ADD AND DUP3 ADD DUP1 PUSH1 0x40 MSTORE POP DUP2 ADD SWAP1 PUSH2 0x7BE SWAP2 SWAP1 PUSH2 0xDB5 JUMP JUMPDEST SWAP1 POP PUSH2 0x821 PUSH20 0xFFFFFFFFFFFFFFFFFFFFFFFFFFFFFFFFFFFFFFFF PUSH32 0x0 AND PUSH32 0x0 DUP4 PUSH2 0xAFD JUMP JUMPDEST POP JUMP JUMPDEST PUSH2 0x82C PUSH2 0x9A6 JUMP JUMPDEST PUSH1 0x40 MLOAD PUSH32 0x70A0823100000000000000000000000000000000000000000000000000000000 DUP2 MSTORE ADDRESS PUSH1 0x4 DUP3 ADD MSTORE PUSH1 0x0 SWAP1 PUSH32 0x0 PUSH20 0xFFFFFFFFFFFFFFFFFFFFFFFFFFFFFFFFFFFFFFFF AND SWAP1 PUSH4 0x70A08231 SWAP1 PUSH1 0x24 ADD PUSH1 0x20 PUSH1 0x40 MLOAD DUP1 DUP4 SUB DUP2 DUP7 GAS STATICCALL ISZERO DUP1 ISZERO PUSH2 0x8B9 JUMPI RETURNDATASIZE PUSH1 0x0 DUP1 RETURNDATACOPY RETURNDATASIZE PUSH1 0x0 REVERT JUMPDEST POP POP POP POP PUSH1 0x40 MLOAD RETURNDATASIZE PUSH1 0x1F NOT PUSH1 0x1F DUP3 ADD AND DUP3 ADD DUP1 PUSH1 0x40 MSTORE POP DUP2 ADD SWAP1 PUSH2 0x8DD SWAP2 SWAP1 PUSH2 0xDB5 JUMP JUMPDEST SWAP1 POP PUSH2 0x821 PUSH20 0xFFFFFFFFFFFFFFFFFFFFFFFFFFFFFFFFFFFFFFFF PUSH32 0x0 AND PUSH32 0x0 DUP4 PUSH2 0xAFD JUMP JUMPDEST PUSH2 0x948 PUSH2 0x9A6 JUMP JUMPDEST PUSH20 0xFFFFFFFFFFFFFFFFFFFFFFFFFFFFFFFFFFFFFFFF DUP2 AND PUSH2 0x99D JUMPI PUSH1 0x40 MLOAD PUSH32 0x1E4FBDF700000000000000000000000000000000000000000000000000000000 DUP2 MSTORE PUSH1 0x0 PUSH1 0x4 DUP3 ADD MSTORE PUSH1 0x24 ADD JUMPDEST PUSH1 0x40 MLOAD DUP1 SWAP2 SUB SWAP1 REVERT JUMPDEST PUSH2 0x821 DUP2 PUSH2 0x9F9 JUMP JUMPDEST PUSH1 0x0 SLOAD PUSH20 0xFFFFFFFFFFFFFFFFFFFFFFFFFFFFFFFFFFFFFFFF AND CALLER EQ PUSH2 0x378 JUMPI PUSH1 0x40 MLOAD PUSH32 0x118CDAA700000000000000000000000000000000000000000000000000000000 DUP2 MSTORE CALLER PUSH1 0x4 DUP3 ADD MSTORE PUSH1 0x24 ADD PUSH2 0x994 JUMP JUMPDEST PUSH1 0x0 DUP1 SLOAD PUSH20 0xFFFFFFFFFFFFFFFFFFFFFFFFFFFFFFFFFFFFFFFF DUP4 DUP2 AND PUSH32 0xFFFFFFFFFFFFFFFFFFFFFFFF0000000000000000000000000000000000000000 DUP4 AND DUP2 OR DUP5 SSTORE PUSH1 0x40 MLOAD SWAP2 SWAP1 SWAP3 AND SWAP3 DUP4 SWAP2 PUSH32 0x8BE0079C531659141344CD1FD0A4F28419497F9722A3DAAFE3B4186F6B6457E0 SWAP2 SWAP1 LOG3 POP POP JUMP JUMPDEST PUSH1 0x40 MLOAD PUSH20 0xFFFFFFFFFFFFFFFFFFFFFFFFFFFFFFFFFFFFFFFF DUP5 DUP2 AND PUSH1 0x24 DUP4 ADD MSTORE DUP4 DUP2 AND PUSH1 0x44 DUP4 ADD MSTORE PUSH1 0x64 DUP3 ADD DUP4 SWAP1 MSTORE PUSH2 0xAF7 SWAP2 DUP7 SWAP2 DUP3 AND SWAP1 PUSH4 0x23B872DD SWAP1 PUSH1 0x84 ADD JUMPDEST PUSH1 0x40 MLOAD PUSH1 0x20 DUP2 DUP4 SUB SUB DUP2 MSTORE SWAP1 PUSH1 0x40 MSTORE SWAP2 POP PUSH1 0xE0 SHL PUSH1 0x20 DUP3 ADD DUP1 MLOAD PUSH28 0xFFFFFFFFFFFFFFFFFFFFFFFFFFFFFFFFFFFFFFFFFFFFFFFFFFFFFFFF DUP4 DUP2 DUP4 AND OR DUP4 MSTORE POP POP POP POP PUSH2 0xB40 JUMP JUMPDEST POP POP POP POP JUMP JUMPDEST PUSH1 0x40 MLOAD PUSH20 0xFFFFFFFFFFFFFFFFFFFFFFFFFFFFFFFFFFFFFFFF DUP4 DUP2 AND PUSH1 0x24 DUP4 ADD MSTORE PUSH1 0x44 DUP3 ADD DUP4 SWAP1 MSTORE PUSH2 0xB3B SWAP2 DUP6 SWAP2 DUP3 AND SWAP1 PUSH4 0xA9059CBB SWAP1 PUSH1 0x64 ADD PUSH2 0xAB0 JUMP JUMPDEST POP POP POP JUMP JUMPDEST PUSH1 0x0 PUSH2 0xB62 PUSH20 0xFFFFFFFFFFFFFFFFFFFFFFFFFFFFFFFFFFFFFFFF DUP5 AND DUP4 PUSH2 0xBD6 JUMP JUMPDEST SWAP1 POP DUP1 MLOAD PUSH1 0x0 EQ ISZERO DUP1 ISZERO PUSH2 0xB87 JUMPI POP DUP1 DUP1 PUSH1 0x20 ADD SWAP1 MLOAD DUP2 ADD SWAP1 PUSH2 0xB85 SWAP2 SWAP1 PUSH2 0xDCE JUMP JUMPDEST ISZERO JUMPDEST ISZERO PUSH2 0xB3B JUMPI PUSH1 0x40 MLOAD PUSH32 0x5274AFE700000000000000000000000000000000000000000000000000000000 DUP2 MSTORE PUSH20 0xFFFFFFFFFFFFFFFFFFFFFFFFFFFFFFFFFFFFFFFF DUP5 AND PUSH1 0x4 DUP3 ADD MSTORE PUSH1 0x24 ADD PUSH2 0x994 JUMP JUMPDEST PUSH1 0x60 PUSH2 0xBE4 DUP4 DUP4 PUSH1 0x0 PUSH2 0xBEB JUMP JUMPDEST SWAP4 SWAP3 POP POP POP JUMP JUMPDEST PUSH1 0x60 DUP2 SELFBALANCE LT ISZERO PUSH2 0xC29 JUMPI PUSH1 0x40 MLOAD PUSH32 0xCD78605900000000000000000000000000000000000000000000000000000000 DUP2 MSTORE ADDRESS PUSH1 0x4 DUP3 ADD MSTORE PUSH1 0x24 ADD PUSH2 0x994 JUMP JUMPDEST PUSH1 0x0 DUP1 DUP6 PUSH20 0xFFFFFFFFFFFFFFFFFFFFFFFFFFFFFFFFFFFFFFFF AND DUP5 DUP7 PUSH1 0x40 MLOAD PUSH2 0xC52 SWAP2 SWAP1 PUSH2 0xDF0 JUMP JUMPDEST PUSH1 0x0 PUSH1 0x40 MLOAD DUP1 DUP4 SUB DUP2 DUP6 DUP8 GAS CALL SWAP3 POP POP POP RETURNDATASIZE DUP1 PUSH1 0x0 DUP2 EQ PUSH2 0xC8F JUMPI PUSH1 0x40 MLOAD SWAP2 POP PUSH1 0x1F NOT PUSH1 0x3F RETURNDATASIZE ADD AND DUP3 ADD PUSH1 0x40 MSTORE RETURNDATASIZE DUP3 MSTORE RETURNDATASIZE PUSH1 0x0 PUSH1 0x20 DUP5 ADD RETURNDATACOPY PUSH2 0xC94 JUMP JUMPDEST PUSH1 0x60 SWAP2 POP JUMPDEST POP SWAP2 POP SWAP2 POP PUSH2 0xCA4 DUP7 DUP4 DUP4 PUSH2 0xCAE JUMP JUMPDEST SWAP7 SWAP6 POP POP POP POP POP POP JUMP JUMPDEST PUSH1 0x60 DUP3 PUSH2 0xCC3 JUMPI PUSH2 0xCBE DUP3 PUSH2 0xD3D JUMP JUMPDEST PUSH2 0xBE4 JUMP JUMPDEST DUP2 MLOAD ISZERO DUP1 ISZERO PUSH2 0xCE7 JUMPI POP PUSH20 0xFFFFFFFFFFFFFFFFFFFFFFFFFFFFFFFFFFFFFFFF DUP5 AND EXTCODESIZE ISZERO JUMPDEST ISZERO PUSH2 0xD36 JUMPI PUSH1 0x40 MLOAD PUSH32 0x9996B31500000000000000000000000000000000000000000000000000000000 DUP2 MSTORE PUSH20 0xFFFFFFFFFFFFFFFFFFFFFFFFFFFFFFFFFFFFFFFF DUP6 AND PUSH1 0x4 DUP3 ADD MSTORE PUSH1 0x24 ADD PUSH2 0x994 JUMP JUMPDEST POP DUP1 PUSH2 0xBE4 JUMP JUMPDEST DUP1 MLOAD ISZERO PUSH2 0xD4D JUMPI DUP1 MLOAD DUP1 DUP3 PUSH1 0x20 ADD REVERT JUMPDEST PUSH1 0x40 MLOAD PUSH32 0x1425EA4200000000000000000000000000000000000000000000000000000000 DUP2 MSTORE PUSH1 0x4 ADD PUSH1 0x40 MLOAD DUP1 SWAP2 SUB SWAP1 REVERT JUMPDEST PUSH1 0x0 PUSH1 0x20 DUP3 DUP5 SUB SLT ISZERO PUSH2 0xD91 JUMPI PUSH1 0x0 DUP1 REVERT JUMPDEST DUP2 CALLDATALOAD PUSH20 0xFFFFFFFFFFFFFFFFFFFFFFFFFFFFFFFFFFFFFFFF DUP2 AND DUP2 EQ PUSH2 0xBE4 JUMPI PUSH1 0x0 DUP1 REVERT JUMPDEST PUSH1 0x0 PUSH1 0x20 DUP3 DUP5 SUB SLT ISZERO PUSH2 0xDC7 JUMPI PUSH1 0x0 DUP1 REVERT JUMPDEST POP MLOAD SWAP2 SWAP1 POP JUMP JUMPDEST PUSH1 0x0 PUSH1 0x20 DUP3 DUP5 SUB SLT ISZERO PUSH2 0xDE0 JUMPI PUSH1 0x0 DUP1 REVERT JUMPDEST DUP2 MLOAD DUP1 ISZERO ISZERO DUP2 EQ PUSH2 0xBE4 JUMPI PUSH1 0x0 DUP1 REVERT JUMPDEST PUSH1 0x0 DUP3 MLOAD PUSH1 0x0 JUMPDEST DUP2 DUP2 LT ISZERO PUSH2 0xE11 JUMPI PUSH1 0x20 DUP2 DUP7 ADD DUP2 ADD MLOAD DUP6 DUP4 ADD MSTORE ADD PUSH2 0xDF7 JUMP JUMPDEST POP PUSH1 0x0 SWAP3 ADD SWAP2 DUP3 MSTORE POP SWAP2 SWAP1 POP JUMP INVALID LOG2 PUSH5 0x6970667358 0x22 SLT KECCAK256 CREATE2 SLOAD DUP6 PUSH6 0x91BE9EB95AF5 POP 0xE3 0xB0 0xAC SWAP2 PUSH30 0xC7152921F37E66B1E912599261E3219964736F6C63430008140033000000 "
        },
        "methodIdentifiers": {
          "BUYER()": "a8fa2987",
          "DEGEN()": "6c639e75",
          "DEGEN_AMOUNT()": "14df5c1d",
          "SELLER()": "bca93eba",
          "VESTING_CLIFF()": "63f3dbe5",
          "VESTING_CONTRACT()": "1d255df1",
          "VESTING_END()": "e4e2b448",
          "VESTING_START()": "cfd11c4f",
          "WETH()": "ad5c4648",
          "WETH_AMOUNT()": "83464e22",
          "hasRun()": "e94c1614",
          "owner()": "8da5cb5b",
          "recoverWeth()": "93f519f1",
          "renounceOwnership()": "715018a6",
          "revoke()": "b6549f75",
          "swap()": "8119c065",
          "transferOwnership(address)": "f2fde38b"
        }
      }
    }
  }
}