{
  "_format": "hh-sol-artifact-1",
  "contractName": "DegenLockToken",
  "sourceName": "contracts/DegenLockToken.sol",
  "abi": [
    {
      "inputs": [],
      "stateMutability": "nonpayable",
      "type": "constructor"
    },
    {
      "inputs": [
        {
          "internalType": "address",
          "name": "spender",
          "type": "address"
        },
        {
          "internalType": "uint256",
          "name": "allowance",
          "type": "uint256"
        },
        {
          "internalType": "uint256",
          "name": "needed",
          "type": "uint256"
        }
      ],
      "name": "ERC20InsufficientAllowance",
      "type": "error"
    },
    {
      "inputs": [
        {
          "internalType": "address",
          "name": "sender",
          "type": "address"
        },
        {
          "internalType": "uint256",
          "name": "balance",
          "type": "uint256"
        },
        {
          "internalType": "uint256",
          "name": "needed",
          "type": "uint256"
        }
      ],
      "name": "ERC20InsufficientBalance",
      "type": "error"
    },
    {
      "inputs": [
        {
          "internalType": "address",
          "name": "approver",
          "type": "address"
        }
      ],
      "name": "ERC20InvalidApprover",
      "type": "error"
    },
    {
      "inputs": [
        {
          "internalType": "address",
          "name": "receiver",
          "type": "address"
        }
      ],
      "name": "ERC20InvalidReceiver",
      "type": "error"
    },
    {
      "inputs": [
        {
          "internalType": "address",
          "name": "sender",
          "type": "address"
        }
      ],
      "name": "ERC20InvalidSender",
      "type": "error"
    },
    {
      "inputs": [
        {
          "internalType": "address",
          "name": "spender",
          "type": "address"
        }
      ],
      "name": "ERC20InvalidSpender",
      "type": "error"
    },
    {
      "inputs": [],
      "name": "LockDurationIsTooLong",
      "type": "error"
    },
    {
      "inputs": [],
      "name": "LockPeriodOngoing",
      "type": "error"
    },
    {
      "inputs": [],
      "name": "MinimumDepositNotMet",
      "type": "error"
    },
    {
      "inputs": [],
      "name": "NotSupported",
      "type": "error"
    },
    {
      "inputs": [
        {
          "internalType": "address",
          "name": "owner",
          "type": "address"
        }
      ],
      "name": "OwnableInvalidOwner",
      "type": "error"
    },
    {
      "inputs": [
        {
          "internalType": "address",
          "name": "account",
          "type": "address"
        }
      ],
      "name": "OwnableUnauthorizedAccount",
      "type": "error"
    },
    {
      "inputs": [],
      "name": "ReentrancyGuardReentrantCall",
      "type": "error"
    },
    {
      "inputs": [
        {
          "internalType": "address",
          "name": "token",
          "type": "address"
        }
      ],
      "name": "SafeERC20FailedOperation",
      "type": "error"
    },
    {
      "inputs": [],
      "name": "ZeroAmount",
      "type": "error"
    },
    {
      "anonymous": false,
      "inputs": [
        {
          "indexed": true,
          "internalType": "address",
          "name": "owner",
          "type": "address"
        },
        {
          "indexed": true,
          "internalType": "address",
          "name": "spender",
          "type": "address"
        },
        {
          "indexed": false,
          "internalType": "uint256",
          "name": "value",
          "type": "uint256"
        }
      ],
      "name": "Approval",
      "type": "event"
    },
    {
      "anonymous": false,
      "inputs": [
        {
          "indexed": true,
          "internalType": "address",
          "name": "account",
          "type": "address"
        },
        {
          "indexed": false,
          "internalType": "uint256",
          "name": "depositTimestamp",
          "type": "uint256"
        },
        {
          "indexed": false,
          "internalType": "uint256",
          "name": "amount",
          "type": "uint256"
        }
      ],
      "name": "Deposit",
      "type": "event"
    },
    {
      "anonymous": false,
      "inputs": [
        {
          "indexed": false,
          "internalType": "uint256",
          "name": "duration",
          "type": "uint256"
        }
      ],
      "name": "LockDurationUpdated",
      "type": "event"
    },
    {
      "anonymous": false,
      "inputs": [
        {
          "indexed": false,
          "internalType": "uint256",
          "name": "minDepositAmount",
          "type": "uint256"
        }
      ],
      "name": "MinDepositAmountUpdated",
      "type": "event"
    },
    {
      "anonymous": false,
      "inputs": [
        {
          "indexed": true,
          "internalType": "address",
          "name": "previousOwner",
          "type": "address"
        },
        {
          "indexed": true,
          "internalType": "address",
          "name": "newOwner",
          "type": "address"
        }
      ],
      "name": "OwnershipTransferred",
      "type": "event"
    },
    {
      "anonymous": false,
      "inputs": [
        {
          "indexed": true,
          "internalType": "address",
          "name": "from",
          "type": "address"
        },
        {
          "indexed": true,
          "internalType": "address",
          "name": "to",
          "type": "address"
        },
        {
          "indexed": false,
          "internalType": "uint256",
          "name": "value",
          "type": "uint256"
        }
      ],
      "name": "Transfer",
      "type": "event"
    },
    {
      "anonymous": false,
      "inputs": [
        {
          "indexed": true,
          "internalType": "address",
          "name": "account",
          "type": "address"
        },
        {
          "indexed": false,
          "internalType": "uint256",
          "name": "depositTimestamp",
          "type": "uint256"
        },
        {
          "indexed": false,
          "internalType": "uint256",
          "name": "amount",
          "type": "uint256"
        }
      ],
      "name": "Withdraw",
      "type": "event"
    },
    {
      "inputs": [],
      "name": "TOKEN",
      "outputs": [
        {
          "internalType": "contract IERC20",
          "name": "",
          "type": "address"
        }
      ],
      "stateMutability": "view",
      "type": "function"
    },
    {
      "inputs": [],
      "name": "TOKEN_NAME",
      "outputs": [
        {
          "internalType": "string",
          "name": "",
          "type": "string"
        }
      ],
      "stateMutability": "view",
      "type": "function"
    },
    {
      "inputs": [],
      "name": "TOKEN_SYMBOL",
      "outputs": [
        {
          "internalType": "string",
          "name": "",
          "type": "string"
        }
      ],
      "stateMutability": "view",
      "type": "function"
    },
    {
      "inputs": [
        {
          "internalType": "address",
          "name": "",
          "type": "address"
        },
        {
          "internalType": "address",
          "name": "",
          "type": "address"
        }
      ],
      "name": "allowance",
      "outputs": [
        {
          "internalType": "uint256",
          "name": "",
          "type": "uint256"
        }
      ],
      "stateMutability": "pure",
      "type": "function"
    },
    {
      "inputs": [
        {
          "internalType": "address",
          "name": "",
          "type": "address"
        },
        {
          "internalType": "uint256",
          "name": "",
          "type": "uint256"
        }
      ],
      "name": "approve",
      "outputs": [
        {
          "internalType": "bool",
          "name": "",
          "type": "bool"
        }
      ],
      "stateMutability": "pure",
      "type": "function"
    },
    {
      "inputs": [
        {
          "internalType": "address",
          "name": "account",
          "type": "address"
        }
      ],
      "name": "balanceOf",
      "outputs": [
        {
          "internalType": "uint256",
          "name": "",
          "type": "uint256"
        }
      ],
      "stateMutability": "view",
      "type": "function"
    },
    {
      "inputs": [],
      "name": "decimals",
      "outputs": [
        {
          "internalType": "uint8",
          "name": "",
          "type": "uint8"
        }
      ],
      "stateMutability": "view",
      "type": "function"
    },
    {
      "inputs": [
        {
          "internalType": "uint256",
          "name": "amount",
          "type": "uint256"
        }
      ],
      "name": "deposit",
      "outputs": [],
      "stateMutability": "nonpayable",
      "type": "function"
    },
    {
      "inputs": [
        {
          "internalType": "address",
          "name": "account",
          "type": "address"
        }
      ],
      "name": "depositTimestamps",
      "outputs": [
        {
          "internalType": "uint256",
          "name": "",
          "type": "uint256"
        }
      ],
      "stateMutability": "view",
      "type": "function"
    },
    {
      "inputs": [],
      "name": "lockDuration",
      "outputs": [
        {
          "internalType": "uint256",
          "name": "",
          "type": "uint256"
        }
      ],
      "stateMutability": "view",
      "type": "function"
    },
    {
      "inputs": [],
      "name": "minDepositAmount",
      "outputs": [
        {
          "internalType": "uint256",
          "name": "",
          "type": "uint256"
        }
      ],
      "stateMutability": "view",
      "type": "function"
    },
    {
      "inputs": [],
      "name": "name",
      "outputs": [
        {
          "internalType": "string",
          "name": "",
          "type": "string"
        }
      ],
      "stateMutability": "view",
      "type": "function"
    },
    {
      "inputs": [],
      "name": "owner",
      "outputs": [
        {
          "internalType": "address",
          "name": "",
          "type": "address"
        }
      ],
      "stateMutability": "view",
      "type": "function"
    },
    {
      "inputs": [
        {
          "internalType": "uint256",
          "name": "newDuration",
          "type": "uint256"
        }
      ],
      "name": "reduceLockDuration",
      "outputs": [],
      "stateMutability": "nonpayable",
      "type": "function"
    },
    {
      "inputs": [],
      "name": "renounceOwnership",
      "outputs": [],
      "stateMutability": "nonpayable",
      "type": "function"
    },
    {
      "inputs": [],
      "name": "symbol",
      "outputs": [
        {
          "internalType": "string",
          "name": "",
          "type": "string"
        }
      ],
      "stateMutability": "view",
      "type": "function"
    },
    {
      "inputs": [],
      "name": "totalSupply",
      "outputs": [
        {
          "internalType": "uint256",
          "name": "",
          "type": "uint256"
        }
      ],
      "stateMutability": "view",
      "type": "function"
    },
    {
      "inputs": [
        {
          "internalType": "address",
          "name": "",
          "type": "address"
        },
        {
          "internalType": "uint256",
          "name": "",
          "type": "uint256"
        }
      ],
      "name": "transfer",
      "outputs": [
        {
          "internalType": "bool",
          "name": "",
          "type": "bool"
        }
      ],
      "stateMutability": "pure",
      "type": "function"
    },
    {
      "inputs": [
        {
          "internalType": "address",
          "name": "",
          "type": "address"
        },
        {
          "internalType": "address",
          "name": "",
          "type": "address"
        },
        {
          "internalType": "uint256",
          "name": "",
          "type": "uint256"
        }
      ],
      "name": "transferFrom",
      "outputs": [
        {
          "internalType": "bool",
          "name": "",
          "type": "bool"
        }
      ],
      "stateMutability": "pure",
      "type": "function"
    },
    {
      "inputs": [
        {
          "internalType": "address",
          "name": "newOwner",
          "type": "address"
        }
      ],
      "name": "transferOwnership",
      "outputs": [],
      "stateMutability": "nonpayable",
      "type": "function"
    },
    {
      "inputs": [
        {
          "internalType": "uint256",
          "name": "newMinDepositAmount",
          "type": "uint256"
        }
      ],
      "name": "updateMinDepositAmount",
      "outputs": [],
      "stateMutability": "nonpayable",
      "type": "function"
    },
    {
      "inputs": [
        {
          "internalType": "uint256",
          "name": "amount",
          "type": "uint256"
        }
      ],
      "name": "withdraw",
      "outputs": [],
      "stateMutability": "nonpayable",
      "type": "function"
    }
  ],
  "bytecode": "0x60806040526276a70060085569021e19e0c9bab24000006009553480156200002657600080fd5b50336040518060400160405280600c81526020016b2637b1b5b2b2102232b3b2b760a11b81525060405180604001604052806006815260200165262222a3a2a760d11b81525081600390816200007d9190620001cc565b5060046200008c8282620001cc565b5050506001600160a01b038116620000be57604051631e4fbdf760e01b81526000600482015260240160405180910390fd5b620000c981620000d5565b50600160065562000298565b600580546001600160a01b038381166001600160a01b0319831681179093556040519116919082907f8be0079c531659141344cd1fd0a4f28419497f9722a3daafe3b4186f6b6457e090600090a35050565b634e487b7160e01b600052604160045260246000fd5b600181811c908216806200015257607f821691505b6020821081036200017357634e487b7160e01b600052602260045260246000fd5b50919050565b601f821115620001c757600081815260208120601f850160051c81016020861015620001a25750805b601f850160051c820191505b81811015620001c357828155600101620001ae565b5050505b505050565b81516001600160401b03811115620001e857620001e862000127565b6200020081620001f984546200013d565b8462000179565b602080601f8311600181146200023857600084156200021f5750858301515b600019600386901b1c1916600185901b178555620001c3565b600085815260208120601f198616915b82811015620002695788860151825594840194600190910190840162000248565b5085821015620002885787850151600019600388901b60f8161c191681555b5050505050600190811b01905550565b610eb480620002a86000396000f3fe608060405234801561001057600080fd5b50600436106101825760003560e01c806370a08231116100d857806395d89b411161008c578063c242652c11610066578063c242652c14610380578063dd62ed3e14610393578063f2fde38b146103a157600080fd5b806395d89b4114610365578063a9059cbb146101b8578063b6b55f251461036d57600080fd5b806382bfefc8116100bd57806382bfefc8146102f457806384780205146103345780638da5cb5b1461034757600080fd5b806370a08231146102b6578063715018a6146102ec57600080fd5b806323b872dd1161013a5780632e1a7d4d116101145780632e1a7d4d14610289578063313ce5671461029e578063645006ca146102ad57600080fd5b806323b872dd1461021f578063240be9441461022d5780632a9053181461024d57600080fd5b8063095ea7b31161016b578063095ea7b3146101b857806318160ddd146101db57806318821400146101e357600080fd5b8063045544431461018757806306fdde03146101a3575b600080fd5b61019060085481565b6040519081526020015b60405180910390f35b6101ab6103b4565b60405161019a9190610c82565b6101cb6101c6366004610d17565b610446565b604051901515815260200161019a565b600254610190565b6101ab6040518060400160405280600c81526020017f4c6f636b656420446567656e000000000000000000000000000000000000000081525081565b6101cb6101c6366004610d41565b61019061023b366004610d7d565b60076020526000908152604090205481565b6101ab6040518060400160405280600681526020017f4c444547454e000000000000000000000000000000000000000000000000000081525081565b61029c610297366004610d9f565b61047a565b005b6040516012815260200161019a565b61019060095481565b6101906102c4366004610d7d565b73ffffffffffffffffffffffffffffffffffffffff1660009081526020819052604090205490565b61029c610583565b61030f73fee293840d23b0b2de8c55e1cf7a9f01c157767c81565b60405173ffffffffffffffffffffffffffffffffffffffff909116815260200161019a565b61029c610342366004610d9f565b610597565b60055473ffffffffffffffffffffffffffffffffffffffff1661030f565b6101ab6105db565b61029c61037b366004610d9f565b6105ea565b61029c61038e366004610d9f565b6106bd565b6101906101c6366004610db8565b61029c6103af366004610d7d565b610736565b6060600380546103c390610deb565b80601f01602080910402602001604051908101604052809291908181526020018280546103ef90610deb565b801561043c5780601f106104115761010080835404028352916020019161043c565b820191906000526020600020905b81548152906001019060200180831161041f57829003601f168201915b5050505050905090565b60006040517fa038794000000000000000000000000000000000000000000000000000000000815260040160405180910390fd5b61048261079c565b806000036104bc576040517f1f2a200500000000000000000000000000000000000000000000000000000000815260040160405180910390fd5b600854336000908152600760205260409020546104d99190610e3e565b4211610511576040517f3c2c6e9d00000000000000000000000000000000000000000000000000000000815260040160405180910390fd5b61051b33826107df565b61053a73fee293840d23b0b2de8c55e1cf7a9f01c157767c338361083f565b604080514281526020810183905233917ff279e6a1f5e320cca91135676d9cb6e44ca8a08c0b88342bcdb1144f6511b56891015b60405180910390a26105806001600655565b50565b61058b6108c5565b6105956000610918565b565b61059f6108c5565b60098190556040518181527fb443c8bd39a1b60d415144f9148c6f90c2b68a553eb90c62cef5e44979db009d906020015b60405180910390a150565b6060600480546103c390610deb565b6105f261079c565b60095433600090815260208190526040902054610610908390610e3e565b1015610648576040517f20d01f0600000000000000000000000000000000000000000000000000000000815260040160405180910390fd5b61066873fee293840d23b0b2de8c55e1cf7a9f01c157767c33308461098f565b61067233826109db565b33600081815260076020908152604091829020429081905582519081529081018490527f90890809c654f11d6e72a28fa60149770a0d11ec6c92319d6ceb2bb0a4ea1a15910161056e565b6106c56108c5565b600854811115610701576040517f4f3500fe00000000000000000000000000000000000000000000000000000000815260040160405180910390fd5b60088190556040518181527f3e062f634a950eae456fa5f8fb53a4f59f55039983bd73df7a34a313b75443d4906020016105d0565b61073e6108c5565b73ffffffffffffffffffffffffffffffffffffffff8116610793576040517f1e4fbdf7000000000000000000000000000000000000000000000000000000008152600060048201526024015b60405180910390fd5b61058081610918565b6002600654036107d8576040517f3ee5aeb500000000000000000000000000000000000000000000000000000000815260040160405180910390fd5b6002600655565b73ffffffffffffffffffffffffffffffffffffffff821661082f576040517f96c6fd1e0000000000000000000000000000000000000000000000000000000081526000600482015260240161078a565b61083b82600083610a33565b5050565b60405173ffffffffffffffffffffffffffffffffffffffff8381166024830152604482018390526108c091859182169063a9059cbb906064015b604051602081830303815290604052915060e01b6020820180517bffffffffffffffffffffffffffffffffffffffffffffffffffffffff8381831617835250505050610bde565b505050565b60055473ffffffffffffffffffffffffffffffffffffffff163314610595576040517f118cdaa700000000000000000000000000000000000000000000000000000000815233600482015260240161078a565b6005805473ffffffffffffffffffffffffffffffffffffffff8381167fffffffffffffffffffffffff0000000000000000000000000000000000000000831681179093556040519116919082907f8be0079c531659141344cd1fd0a4f28419497f9722a3daafe3b4186f6b6457e090600090a35050565b60405173ffffffffffffffffffffffffffffffffffffffff84811660248301528381166044830152606482018390526109d59186918216906323b872dd90608401610879565b50505050565b73ffffffffffffffffffffffffffffffffffffffff8216610a2b576040517fec442f050000000000000000000000000000000000000000000000000000000081526000600482015260240161078a565b61083b600083835b73ffffffffffffffffffffffffffffffffffffffff8316610a6b578060026000828254610a609190610e3e565b90915550610b1d9050565b73ffffffffffffffffffffffffffffffffffffffff831660009081526020819052604090205481811015610af1576040517fe450d38c00000000000000000000000000000000000000000000000000000000815273ffffffffffffffffffffffffffffffffffffffff85166004820152602481018290526044810183905260640161078a565b73ffffffffffffffffffffffffffffffffffffffff841660009081526020819052604090209082900390555b73ffffffffffffffffffffffffffffffffffffffff8216610b4657600280548290039055610b72565b73ffffffffffffffffffffffffffffffffffffffff821660009081526020819052604090208054820190555b8173ffffffffffffffffffffffffffffffffffffffff168373ffffffffffffffffffffffffffffffffffffffff167fddf252ad1be2c89b69c2b068fc378daa952ba7f163c4a11628f55a4df523b3ef83604051610bd191815260200190565b60405180910390a3505050565b600080602060008451602086016000885af180610c01576040513d6000823e3d81fd5b50506000513d91508115610c19578060011415610c33565b73ffffffffffffffffffffffffffffffffffffffff84163b155b156109d5576040517f5274afe700000000000000000000000000000000000000000000000000000000815273ffffffffffffffffffffffffffffffffffffffff8516600482015260240161078a565b600060208083528351808285015260005b81811015610caf57858101830151858201604001528201610c93565b5060006040828601015260407fffffffffffffffffffffffffffffffffffffffffffffffffffffffffffffffe0601f8301168501019250505092915050565b803573ffffffffffffffffffffffffffffffffffffffff81168114610d1257600080fd5b919050565b60008060408385031215610d2a57600080fd5b610d3383610cee565b946020939093013593505050565b600080600060608486031215610d5657600080fd5b610d5f84610cee565b9250610d6d60208501610cee565b9150604084013590509250925092565b600060208284031215610d8f57600080fd5b610d9882610cee565b9392505050565b600060208284031215610db157600080fd5b5035919050565b60008060408385031215610dcb57600080fd5b610dd483610cee565b9150610de260208401610cee565b90509250929050565b600181811c90821680610dff57607f821691505b602082108103610e38577f4e487b7100000000000000000000000000000000000000000000000000000000600052602260045260246000fd5b50919050565b80820180821115610e78577f4e487b7100000000000000000000000000000000000000000000000000000000600052601160045260246000fd5b9291505056fea264697066735822122000a2d71b411a713119df438cccbf9343610fc9b1ce698d91822ae3e6d766488164736f6c63430008140033",
  "linkReferences": {},
  "deployedLinkReferences": {}
}