{
  "_format": "hh-sol-artifact-1",
  "contractName": "DegenAirdrop",
  "sourceName": "contracts/DegenAirdrop.sol",
  "abi": [
    {
      "inputs": [
        {
          "internalType": "address",
          "name": "token_",
          "type": "address"
        },
        {
          "internalType": "bytes32",
          "name": "merkleRoot_",
          "type": "bytes32"
        }
      ],
      "stateMutability": "nonpayable",
      "type": "constructor"
    },
    {
      "inputs": [
        {
          "internalType": "address",
          "name": "target",
          "type": "address"
        }
      ],
      "name": "AddressEmptyCode",
      "type": "error"
    },
    {
      "inputs": [
        {
          "internalType": "address",
          "name": "account",
          "type": "address"
        }
      ],
      "name": "AddressInsufficientBalance",
      "type": "error"
    },
    {
      "inputs": [],
      "name": "AlreadyClaimed",
      "type": "error"
    },
    {
      "inputs": [],
      "name": "FailedInnerCall",
      "type": "error"
    },
    {
      "inputs": [],
      "name": "InvalidProof",
      "type": "error"
    },
    {
      "inputs": [
        {
          "internalType": "address",
          "name": "sender",
          "type": "address"
        },
        {
          "internalType": "address",
          "name": "claimAccount",
          "type": "address"
        }
      ],
      "name": "NotClaimAccount",
      "type": "error"
    },
    {
      "inputs": [
        {
          "internalType": "address",
          "name": "token",
          "type": "address"
        }
      ],
      "name": "SafeERC20FailedOperation",
      "type": "error"
    },
    {
      "anonymous": false,
      "inputs": [
        {
          "indexed": false,
          "internalType": "uint256",
          "name": "index",
          "type": "uint256"
        },
        {
          "indexed": false,
          "internalType": "address",
          "name": "account",
          "type": "address"
        },
        {
          "indexed": false,
          "internalType": "uint256",
          "name": "amount",
          "type": "uint256"
        }
      ],
      "name": "Claimed",
      "type": "event"
    },
    {
      "inputs": [],
      "name": "MERKLE_ROOT",
      "outputs": [
        {
          "internalType": "bytes32",
          "name": "",
          "type": "bytes32"
        }
      ],
      "stateMutability": "view",
      "type": "function"
    },
    {
      "inputs": [],
      "name": "TOKEN",
      "outputs": [
        {
          "internalType": "address",
          "name": "",
          "type": "address"
        }
      ],
      "stateMutability": "view",
      "type": "function"
    },
    {
      "inputs": [
        {
          "internalType": "uint256",
          "name": "index",
          "type": "uint256"
        },
        {
          "internalType": "address",
          "name": "account",
          "type": "address"
        },
        {
          "internalType": "uint256",
          "name": "amount",
          "type": "uint256"
        },
        {
          "internalType": "bytes32[]",
          "name": "merkleProof",
          "type": "bytes32[]"
        }
      ],
      "name": "claim",
      "outputs": [],
      "stateMutability": "nonpayable",
      "type": "function"
    },
    {
      "inputs": [
        {
          "internalType": "uint256",
          "name": "index",
          "type": "uint256"
        }
      ],
      "name": "isClaimed",
      "outputs": [
        {
          "internalType": "bool",
          "name": "",
          "type": "bool"
        }
      ],
      "stateMutability": "view",
      "type": "function"
    }
  ],
  "bytecode": "0x60c060405234801561001057600080fd5b506040516109dc3803806109dc83398101604081905261002f91610045565b6001600160a01b0390911660805260a05261007f565b6000806040838503121561005857600080fd5b82516001600160a01b038116811461006f57600080fd5b6020939093015192949293505050565b60805160a05161092c6100b060003960008181606b015261025401526000818160a501526102d8015261092c6000f3fe608060405234801561001057600080fd5b506004361061004c5760003560e01c80632e7ba6ef1461005157806351e75e8b1461006657806382bfefc8146100a05780639e34070f146100ec575b600080fd5b61006461005f3660046106f5565b61010f565b005b61008d7f000000000000000000000000000000000000000000000000000000000000000081565b6040519081526020015b60405180910390f35b6100c77f000000000000000000000000000000000000000000000000000000000000000081565b60405173ffffffffffffffffffffffffffffffffffffffff9091168152602001610097565b6100ff6100fa3660046107a7565b61035d565b6040519015158152602001610097565b6101188561035d565b1561014f576040517f646cf55800000000000000000000000000000000000000000000000000000000815260040160405180910390fd5b3373ffffffffffffffffffffffffffffffffffffffff8516146101c1576040517f3fab711000000000000000000000000000000000000000000000000000000000815233600482015273ffffffffffffffffffffffffffffffffffffffff851660248201526044015b60405180910390fd5b60408051602081018790527fffffffffffffffffffffffffffffffffffffffff000000000000000000000000606087901b16918101919091526054810184905260009060740160405160208183030381529060405280519060200120905061027f8383808060200260200160405190810160405280939291908181526020018383602002808284376000920191909152507f0000000000000000000000000000000000000000000000000000000000000000925085915061039e9050565b6102b5576040517f09bde33900000000000000000000000000000000000000000000000000000000815260040160405180910390fd5b6102be866103b6565b6102ff73ffffffffffffffffffffffffffffffffffffffff7f00000000000000000000000000000000000000000000000000000000000000001686866103f4565b6040805187815273ffffffffffffffffffffffffffffffffffffffff871660208201529081018590527f4ec90e965519d92681267467f775ada5bd214aa92c0dc93d90a5e880ce9ed0269060600160405180910390a1505050505050565b60008061036c610100846107ef565b9050600061037c61010085610803565b60009283526020839052604090922054600190921b9182169091149392505050565b6000826103ab8584610486565b1490505b9392505050565b60006103c4610100836107ef565b905060006103d461010084610803565b6000928352602083905260409092208054600190931b9092179091555050565b6040805173ffffffffffffffffffffffffffffffffffffffff8416602482015260448082018490528251808303909101815260649091019091526020810180517bffffffffffffffffffffffffffffffffffffffffffffffffffffffff167fa9059cbb000000000000000000000000000000000000000000000000000000001790526104819084906104d3565b505050565b600081815b84518110156104cb576104b7828683815181106104aa576104aa610817565b6020026020010151610569565b9150806104c381610846565b91505061048b565b509392505050565b60006104f573ffffffffffffffffffffffffffffffffffffffff841683610595565b9050805160001415801561051a57508080602001905181019061051891906108a5565b155b15610481576040517f5274afe700000000000000000000000000000000000000000000000000000000815273ffffffffffffffffffffffffffffffffffffffff841660048201526024016101b8565b60008183106105855760008281526020849052604090206103af565b5060009182526020526040902090565b60606103af83836000846000808573ffffffffffffffffffffffffffffffffffffffff1684866040516105c891906108c7565b60006040518083038185875af1925050503d8060008114610605576040519150601f19603f3d011682016040523d82523d6000602084013e61060a565b606091505b509150915061061a868383610624565b9695505050505050565b60608261063957610634826106b3565b6103af565b815115801561065d575073ffffffffffffffffffffffffffffffffffffffff84163b155b156106ac576040517f9996b31500000000000000000000000000000000000000000000000000000000815273ffffffffffffffffffffffffffffffffffffffff851660048201526024016101b8565b50806103af565b8051156106c35780518082602001fd5b6040517f1425ea4200000000000000000000000000000000000000000000000000000000815260040160405180910390fd5b60008060008060006080868803121561070d57600080fd5b85359450602086013573ffffffffffffffffffffffffffffffffffffffff8116811461073857600080fd5b935060408601359250606086013567ffffffffffffffff8082111561075c57600080fd5b818801915088601f83011261077057600080fd5b81358181111561077f57600080fd5b8960208260051b850101111561079457600080fd5b9699959850939650602001949392505050565b6000602082840312156107b957600080fd5b5035919050565b7f4e487b7100000000000000000000000000000000000000000000000000000000600052601260045260246000fd5b6000826107fe576107fe6107c0565b500490565b600082610812576108126107c0565b500690565b7f4e487b7100000000000000000000000000000000000000000000000000000000600052603260045260246000fd5b60007fffffffffffffffffffffffffffffffffffffffffffffffffffffffffffffffff820361089e577f4e487b7100000000000000000000000000000000000000000000000000000000600052601160045260246000fd5b5060010190565b6000602082840312156108b757600080fd5b815180151581146103af57600080fd5b6000825160005b818110156108e857602081860181015185830152016108ce565b50600092019182525091905056fea2646970667358221220c0e6842b5bb76afd7a7140073d67c9b50ebe2dc329be6e407c15b9b60e32ed3164736f6c63430008140033",
  "linkReferences": {},
  "deployedLinkReferences": {}
}