{
  "_format": "hh-sol-artifact-1",
  "contractName": "DegenAirdrop",
  "sourceName": "contracts/DegenAirdrop.sol",
  "abi": [
    {
      "inputs": [
        {
          "internalType": "address",
          "name": "token_",
          "type": "address"
        },
        {
          "internalType": "bytes32",
          "name": "merkleRoot_",
          "type": "bytes32"
        }
      ],
      "stateMutability": "nonpayable",
      "type": "constructor"
    },
    {
      "inputs": [
        {
          "internalType": "address",
          "name": "target",
          "type": "address"
        }
      ],
      "name": "AddressEmptyCode",
      "type": "error"
    },
    {
      "inputs": [
        {
          "internalType": "address",
          "name": "account",
          "type": "address"
        }
      ],
      "name": "AddressInsufficientBalance",
      "type": "error"
    },
    {
      "inputs": [],
      "name": "AlreadyClaimed",
      "type": "error"
    },
    {
      "inputs": [],
      "name": "FailedInnerCall",
      "type": "error"
    },
    {
      "inputs": [],
      "name": "InvalidProof",
      "type": "error"
    },
    {
      "inputs": [
        {
          "internalType": "address",
          "name": "token",
          "type": "address"
        }
      ],
      "name": "SafeERC20FailedOperation",
      "type": "error"
    },
    {
      "anonymous": false,
      "inputs": [
        {
          "indexed": false,
          "internalType": "uint256",
          "name": "index",
          "type": "uint256"
        },
        {
          "indexed": false,
          "internalType": "address",
          "name": "account",
          "type": "address"
        },
        {
          "indexed": false,
          "internalType": "uint256",
          "name": "amount",
          "type": "uint256"
        }
      ],
      "name": "Claimed",
      "type": "event"
    },
    {
      "inputs": [
        {
          "internalType": "uint256",
          "name": "index",
          "type": "uint256"
        },
        {
          "internalType": "address",
          "name": "account",
          "type": "address"
        },
        {
          "internalType": "uint256",
          "name": "amount",
          "type": "uint256"
        },
        {
          "internalType": "bytes32[]",
          "name": "merkleProof",
          "type": "bytes32[]"
        }
      ],
      "name": "claim",
      "outputs": [],
      "stateMutability": "nonpayable",
      "type": "function"
    },
    {
      "inputs": [
        {
          "internalType": "uint256",
          "name": "index",
          "type": "uint256"
        }
      ],
      "name": "isClaimed",
      "outputs": [
        {
          "internalType": "bool",
          "name": "",
          "type": "bool"
        }
      ],
      "stateMutability": "view",
      "type": "function"
    },
    {
      "inputs": [],
      "name": "merkleRoot",
      "outputs": [
        {
          "internalType": "bytes32",
          "name": "",
          "type": "bytes32"
        }
      ],
      "stateMutability": "view",
      "type": "function"
    },
    {
      "inputs": [],
      "name": "token",
      "outputs": [
        {
          "internalType": "address",
          "name": "",
          "type": "address"
        }
      ],
      "stateMutability": "view",
      "type": "function"
    }
  ],
  "bytecode": "0x60c06040523480156200001157600080fd5b5060405162000e3c38038062000e3c833981810160405281019062000037919062000120565b8173ffffffffffffffffffffffffffffffffffffffff1660808173ffffffffffffffffffffffffffffffffffffffff16815250508060a08181525050505062000167565b600080fd5b600073ffffffffffffffffffffffffffffffffffffffff82169050919050565b6000620000ad8262000080565b9050919050565b620000bf81620000a0565b8114620000cb57600080fd5b50565b600081519050620000df81620000b4565b92915050565b6000819050919050565b620000fa81620000e5565b81146200010657600080fd5b50565b6000815190506200011a81620000ef565b92915050565b600080604083850312156200013a57620001396200007b565b5b60006200014a85828601620000ce565b92505060206200015d8582860162000109565b9150509250929050565b60805160a051610ca16200019b6000396000818161018f01526102830152600081816101fa01526102fc0152610ca16000f3fe608060405234801561001057600080fd5b506004361061004c5760003560e01c80632e7ba6ef146100515780632eb4a7ab1461006d5780639e34070f1461008b578063fc0c546a146100bb575b600080fd5b61006b600480360381019061006691906107f5565b6100d9565b005b610075610281565b6040516100829190610896565b60405180910390f35b6100a560048036038101906100a091906108b1565b6102a5565b6040516100b291906108f9565b60405180910390f35b6100c36102fa565b6040516100d09190610923565b60405180910390f35b6100e2856102a5565b15610119576040517f646cf55800000000000000000000000000000000000000000000000000000000815260040160405180910390fd5b6000858585604051602001610130939291906109a7565b6040516020818303038152906040528051906020012090506101b4838380806020026020016040519081016040528093929190818152602001838360200280828437600081840152601f19601f820116905080830192505050505050507f00000000000000000000000000000000000000000000000000000000000000008361031e565b6101ea576040517f09bde33900000000000000000000000000000000000000000000000000000000815260040160405180910390fd5b6101f386610335565b61023e85857f000000000000000000000000000000000000000000000000000000000000000073ffffffffffffffffffffffffffffffffffffffff1661038d9092919063ffffffff16565b7f4ec90e965519d92681267467f775ada5bd214aa92c0dc93d90a5e880ce9ed026868686604051610271939291906109f3565b60405180910390a1505050505050565b7f000000000000000000000000000000000000000000000000000000000000000081565b600080610100836102b69190610a88565b90506000610100846102c89190610ab9565b905060008060008481526020019081526020016000205490506000826001901b90508081831614945050505050919050565b7f000000000000000000000000000000000000000000000000000000000000000081565b60008261032b858461040c565b1490509392505050565b6000610100826103459190610a88565b90506000610100836103579190610ab9565b9050806001901b600080848152602001908152602001600020541760008084815260200190815260200160002081905550505050565b610407838473ffffffffffffffffffffffffffffffffffffffff1663a9059cbb85856040516024016103c0929190610aea565b604051602081830303815290604052915060e01b6020820180517bffffffffffffffffffffffffffffffffffffffffffffffffffffffff8381831617835250505050610462565b505050565b60008082905060005b8451811015610457576104428286838151811061043557610434610b13565b5b60200260200101516104f9565b9150808061044f90610b42565b915050610415565b508091505092915050565b600061048d828473ffffffffffffffffffffffffffffffffffffffff1661052490919063ffffffff16565b905060008151141580156104b25750808060200190518101906104b09190610bb6565b155b156104f457826040517f5274afe70000000000000000000000000000000000000000000000000000000081526004016104eb9190610923565b60405180910390fd5b505050565b60008183106105115761050c828461053a565b61051c565b61051b838361053a565b5b905092915050565b606061053283836000610551565b905092915050565b600082600052816020526040600020905092915050565b60608147101561059857306040517fcd78605900000000000000000000000000000000000000000000000000000000815260040161058f9190610923565b60405180910390fd5b6000808573ffffffffffffffffffffffffffffffffffffffff1684866040516105c19190610c54565b60006040518083038185875af1925050503d80600081146105fe576040519150601f19603f3d011682016040523d82523d6000602084013e610603565b606091505b509150915061061386838361061e565b925050509392505050565b6060826106335761062e826106ad565b6106a5565b6000825114801561065b575060008473ffffffffffffffffffffffffffffffffffffffff163b145b1561069d57836040517f9996b3150000000000000000000000000000000000000000000000000000000081526004016106949190610923565b60405180910390fd5b8190506106a6565b5b9392505050565b6000815111156106c05780518082602001fd5b6040517f1425ea4200000000000000000000000000000000000000000000000000000000815260040160405180910390fd5b600080fd5b600080fd5b6000819050919050565b61070f816106fc565b811461071a57600080fd5b50565b60008135905061072c81610706565b92915050565b600073ffffffffffffffffffffffffffffffffffffffff82169050919050565b600061075d82610732565b9050919050565b61076d81610752565b811461077857600080fd5b50565b60008135905061078a81610764565b92915050565b600080fd5b600080fd5b600080fd5b60008083601f8401126107b5576107b4610790565b5b8235905067ffffffffffffffff8111156107d2576107d1610795565b5b6020830191508360208202830111156107ee576107ed61079a565b5b9250929050565b600080600080600060808688031215610811576108106106f2565b5b600061081f8882890161071d565b95505060206108308882890161077b565b94505060406108418882890161071d565b935050606086013567ffffffffffffffff811115610862576108616106f7565b5b61086e8882890161079f565b92509250509295509295909350565b6000819050919050565b6108908161087d565b82525050565b60006020820190506108ab6000830184610887565b92915050565b6000602082840312156108c7576108c66106f2565b5b60006108d58482850161071d565b91505092915050565b60008115159050919050565b6108f3816108de565b82525050565b600060208201905061090e60008301846108ea565b92915050565b61091d81610752565b82525050565b60006020820190506109386000830184610914565b92915050565b6000819050919050565b610959610954826106fc565b61093e565b82525050565b60008160601b9050919050565b60006109778261095f565b9050919050565b60006109898261096c565b9050919050565b6109a161099c82610752565b61097e565b82525050565b60006109b38286610948565b6020820191506109c38285610990565b6014820191506109d38284610948565b602082019150819050949350505050565b6109ed816106fc565b82525050565b6000606082019050610a0860008301866109e4565b610a156020830185610914565b610a2260408301846109e4565b949350505050565b7f4e487b7100000000000000000000000000000000000000000000000000000000600052601260045260246000fd5b7f4e487b7100000000000000000000000000000000000000000000000000000000600052601160045260246000fd5b6000610a93826106fc565b9150610a9e836106fc565b925082610aae57610aad610a2a565b5b828204905092915050565b6000610ac4826106fc565b9150610acf836106fc565b925082610adf57610ade610a2a565b5b828206905092915050565b6000604082019050610aff6000830185610914565b610b0c60208301846109e4565b9392505050565b7f4e487b7100000000000000000000000000000000000000000000000000000000600052603260045260246000fd5b6000610b4d826106fc565b91507fffffffffffffffffffffffffffffffffffffffffffffffffffffffffffffffff8203610b7f57610b7e610a59565b5b600182019050919050565b610b93816108de565b8114610b9e57600080fd5b50565b600081519050610bb081610b8a565b92915050565b600060208284031215610bcc57610bcb6106f2565b5b6000610bda84828501610ba1565b91505092915050565b600081519050919050565b600081905092915050565b60005b83811015610c17578082015181840152602081019050610bfc565b60008484015250505050565b6000610c2e82610be3565b610c388185610bee565b9350610c48818560208601610bf9565b80840191505092915050565b6000610c608284610c23565b91508190509291505056fea264697066735822122074befa8158f8d7b715472592102d9952596ddc5489a96207e47c6dec6e281f0864736f6c63430008140033",
  "linkReferences": {},
  "deployedLinkReferences": {}
}