{
  "_format": "hh-sol-artifact-1",
  "contractName": "DegenToken",
  "sourceName": "contracts/DegenToken.sol",
  "abi": [
    {
      "inputs": [
        {
          "internalType": "uint256",
          "name": "mintingAllowedAfter_",
          "type": "uint256"
        }
      ],
      "stateMutability": "nonpayable",
      "type": "constructor"
    },
    {
      "inputs": [],
      "name": "DegenMintCapExceeded",
      "type": "error"
    },
    {
      "inputs": [],
      "name": "ECDSAInvalidSignature",
      "type": "error"
    },
    {
      "inputs": [
        {
          "internalType": "uint256",
          "name": "length",
          "type": "uint256"
        }
      ],
      "name": "ECDSAInvalidSignatureLength",
      "type": "error"
    },
    {
      "inputs": [
        {
          "internalType": "bytes32",
          "name": "s",
          "type": "bytes32"
        }
      ],
      "name": "ECDSAInvalidSignatureS",
      "type": "error"
    },
    {
      "inputs": [
        {
          "internalType": "address",
          "name": "spender",
          "type": "address"
        },
        {
          "internalType": "uint256",
          "name": "allowance",
          "type": "uint256"
        },
        {
          "internalType": "uint256",
          "name": "needed",
          "type": "uint256"
        }
      ],
      "name": "ERC20InsufficientAllowance",
      "type": "error"
    },
    {
      "inputs": [
        {
          "internalType": "address",
          "name": "sender",
          "type": "address"
        },
        {
          "internalType": "uint256",
          "name": "balance",
          "type": "uint256"
        },
        {
          "internalType": "uint256",
          "name": "needed",
          "type": "uint256"
        }
      ],
      "name": "ERC20InsufficientBalance",
      "type": "error"
    },
    {
      "inputs": [
        {
          "internalType": "address",
          "name": "approver",
          "type": "address"
        }
      ],
      "name": "ERC20InvalidApprover",
      "type": "error"
    },
    {
      "inputs": [
        {
          "internalType": "address",
          "name": "receiver",
          "type": "address"
        }
      ],
      "name": "ERC20InvalidReceiver",
      "type": "error"
    },
    {
      "inputs": [
        {
          "internalType": "address",
          "name": "sender",
          "type": "address"
        }
      ],
      "name": "ERC20InvalidSender",
      "type": "error"
    },
    {
      "inputs": [
        {
          "internalType": "address",
          "name": "spender",
          "type": "address"
        }
      ],
      "name": "ERC20InvalidSpender",
      "type": "error"
    },
    {
      "inputs": [
        {
          "internalType": "uint256",
          "name": "deadline",
          "type": "uint256"
        }
      ],
      "name": "ERC2612ExpiredSignature",
      "type": "error"
    },
    {
      "inputs": [
        {
          "internalType": "address",
          "name": "signer",
          "type": "address"
        },
        {
          "internalType": "address",
          "name": "owner",
          "type": "address"
        }
      ],
      "name": "ERC2612InvalidSigner",
      "type": "error"
    },
    {
      "inputs": [
        {
          "internalType": "address",
          "name": "account",
          "type": "address"
        },
        {
          "internalType": "uint256",
          "name": "currentNonce",
          "type": "uint256"
        }
      ],
      "name": "InvalidAccountNonce",
      "type": "error"
    },
    {
      "inputs": [],
      "name": "InvalidShortString",
      "type": "error"
    },
    {
      "inputs": [
        {
          "internalType": "uint256",
          "name": "blockTimestamp",
          "type": "uint256"
        },
        {
          "internalType": "uint256",
          "name": "mintingAllowedAfter",
          "type": "uint256"
        }
      ],
      "name": "MintAllowedAfterDeployOnly",
      "type": "error"
    },
    {
      "inputs": [],
      "name": "MintToZeroAddressBlocked",
      "type": "error"
    },
    {
      "inputs": [],
      "name": "MintingDateNotReached",
      "type": "error"
    },
    {
      "inputs": [
        {
          "internalType": "address",
          "name": "owner",
          "type": "address"
        }
      ],
      "name": "OwnableInvalidOwner",
      "type": "error"
    },
    {
      "inputs": [
        {
          "internalType": "address",
          "name": "account",
          "type": "address"
        }
      ],
      "name": "OwnableUnauthorizedAccount",
      "type": "error"
    },
    {
      "inputs": [
        {
          "internalType": "string",
          "name": "str",
          "type": "string"
        }
      ],
      "name": "StringTooLong",
      "type": "error"
    },
    {
      "anonymous": false,
      "inputs": [
        {
          "indexed": true,
          "internalType": "address",
          "name": "owner",
          "type": "address"
        },
        {
          "indexed": true,
          "internalType": "address",
          "name": "spender",
          "type": "address"
        },
        {
          "indexed": false,
          "internalType": "uint256",
          "name": "value",
          "type": "uint256"
        }
      ],
      "name": "Approval",
      "type": "event"
    },
    {
      "anonymous": false,
      "inputs": [],
      "name": "EIP712DomainChanged",
      "type": "event"
    },
    {
      "anonymous": false,
      "inputs": [
        {
          "indexed": true,
          "internalType": "address",
          "name": "previousOwner",
          "type": "address"
        },
        {
          "indexed": true,
          "internalType": "address",
          "name": "newOwner",
          "type": "address"
        }
      ],
      "name": "OwnershipTransferred",
      "type": "event"
    },
    {
      "anonymous": false,
      "inputs": [
        {
          "indexed": true,
          "internalType": "address",
          "name": "from",
          "type": "address"
        },
        {
          "indexed": true,
          "internalType": "address",
          "name": "to",
          "type": "address"
        },
        {
          "indexed": false,
          "internalType": "uint256",
          "name": "value",
          "type": "uint256"
        }
      ],
      "name": "Transfer",
      "type": "event"
    },
    {
      "inputs": [],
      "name": "DOMAIN_SEPARATOR",
      "outputs": [
        {
          "internalType": "bytes32",
          "name": "",
          "type": "bytes32"
        }
      ],
      "stateMutability": "view",
      "type": "function"
    },
    {
      "inputs": [],
      "name": "MINIMUM_TIME_BETWEEN_MINTS",
      "outputs": [
        {
          "internalType": "uint32",
          "name": "",
          "type": "uint32"
        }
      ],
      "stateMutability": "view",
      "type": "function"
    },
    {
      "inputs": [],
      "name": "MINT_CAP",
      "outputs": [
        {
          "internalType": "uint8",
          "name": "",
          "type": "uint8"
        }
      ],
      "stateMutability": "view",
      "type": "function"
    },
    {
      "inputs": [],
      "name": "TOKEN_NAME",
      "outputs": [
        {
          "internalType": "string",
          "name": "",
          "type": "string"
        }
      ],
      "stateMutability": "view",
      "type": "function"
    },
    {
      "inputs": [],
      "name": "TOKEN_SUPPLY",
      "outputs": [
        {
          "internalType": "uint256",
          "name": "",
          "type": "uint256"
        }
      ],
      "stateMutability": "view",
      "type": "function"
    },
    {
      "inputs": [],
      "name": "TOKEN_SYMBOL",
      "outputs": [
        {
          "internalType": "string",
          "name": "",
          "type": "string"
        }
      ],
      "stateMutability": "view",
      "type": "function"
    },
    {
      "inputs": [
        {
          "internalType": "address",
          "name": "owner",
          "type": "address"
        },
        {
          "internalType": "address",
          "name": "spender",
          "type": "address"
        }
      ],
      "name": "allowance",
      "outputs": [
        {
          "internalType": "uint256",
          "name": "",
          "type": "uint256"
        }
      ],
      "stateMutability": "view",
      "type": "function"
    },
    {
      "inputs": [
        {
          "internalType": "address",
          "name": "spender",
          "type": "address"
        },
        {
          "internalType": "uint256",
          "name": "value",
          "type": "uint256"
        }
      ],
      "name": "approve",
      "outputs": [
        {
          "internalType": "bool",
          "name": "",
          "type": "bool"
        }
      ],
      "stateMutability": "nonpayable",
      "type": "function"
    },
    {
      "inputs": [
        {
          "internalType": "address",
          "name": "account",
          "type": "address"
        }
      ],
      "name": "balanceOf",
      "outputs": [
        {
          "internalType": "uint256",
          "name": "",
          "type": "uint256"
        }
      ],
      "stateMutability": "view",
      "type": "function"
    },
    {
      "inputs": [
        {
          "internalType": "uint256",
          "name": "value",
          "type": "uint256"
        }
      ],
      "name": "burn",
      "outputs": [],
      "stateMutability": "nonpayable",
      "type": "function"
    },
    {
      "inputs": [
        {
          "internalType": "address",
          "name": "account",
          "type": "address"
        },
        {
          "internalType": "uint256",
          "name": "value",
          "type": "uint256"
        }
      ],
      "name": "burnFrom",
      "outputs": [],
      "stateMutability": "nonpayable",
      "type": "function"
    },
    {
      "inputs": [],
      "name": "decimals",
      "outputs": [
        {
          "internalType": "uint8",
          "name": "",
          "type": "uint8"
        }
      ],
      "stateMutability": "view",
      "type": "function"
    },
    {
      "inputs": [],
      "name": "eip712Domain",
      "outputs": [
        {
          "internalType": "bytes1",
          "name": "fields",
          "type": "bytes1"
        },
        {
          "internalType": "string",
          "name": "name",
          "type": "string"
        },
        {
          "internalType": "string",
          "name": "version",
          "type": "string"
        },
        {
          "internalType": "uint256",
          "name": "chainId",
          "type": "uint256"
        },
        {
          "internalType": "address",
          "name": "verifyingContract",
          "type": "address"
        },
        {
          "internalType": "bytes32",
          "name": "salt",
          "type": "bytes32"
        },
        {
          "internalType": "uint256[]",
          "name": "extensions",
          "type": "uint256[]"
        }
      ],
      "stateMutability": "view",
      "type": "function"
    },
    {
      "inputs": [
        {
          "internalType": "address",
          "name": "to",
          "type": "address"
        },
        {
          "internalType": "uint96",
          "name": "amount",
          "type": "uint96"
        }
      ],
      "name": "mint",
      "outputs": [],
      "stateMutability": "nonpayable",
      "type": "function"
    },
    {
      "inputs": [],
      "name": "mintingAllowedAfter",
      "outputs": [
        {
          "internalType": "uint256",
          "name": "",
          "type": "uint256"
        }
      ],
      "stateMutability": "view",
      "type": "function"
    },
    {
      "inputs": [],
      "name": "name",
      "outputs": [
        {
          "internalType": "string",
          "name": "",
          "type": "string"
        }
      ],
      "stateMutability": "view",
      "type": "function"
    },
    {
      "inputs": [
        {
          "internalType": "address",
          "name": "owner",
          "type": "address"
        }
      ],
      "name": "nonces",
      "outputs": [
        {
          "internalType": "uint256",
          "name": "",
          "type": "uint256"
        }
      ],
      "stateMutability": "view",
      "type": "function"
    },
    {
      "inputs": [],
      "name": "owner",
      "outputs": [
        {
          "internalType": "address",
          "name": "",
          "type": "address"
        }
      ],
      "stateMutability": "view",
      "type": "function"
    },
    {
      "inputs": [
        {
          "internalType": "address",
          "name": "owner",
          "type": "address"
        },
        {
          "internalType": "address",
          "name": "spender",
          "type": "address"
        },
        {
          "internalType": "uint256",
          "name": "value",
          "type": "uint256"
        },
        {
          "internalType": "uint256",
          "name": "deadline",
          "type": "uint256"
        },
        {
          "internalType": "uint8",
          "name": "v",
          "type": "uint8"
        },
        {
          "internalType": "bytes32",
          "name": "r",
          "type": "bytes32"
        },
        {
          "internalType": "bytes32",
          "name": "s",
          "type": "bytes32"
        }
      ],
      "name": "permit",
      "outputs": [],
      "stateMutability": "nonpayable",
      "type": "function"
    },
    {
      "inputs": [],
      "name": "renounceOwnership",
      "outputs": [],
      "stateMutability": "nonpayable",
      "type": "function"
    },
    {
      "inputs": [],
      "name": "symbol",
      "outputs": [
        {
          "internalType": "string",
          "name": "",
          "type": "string"
        }
      ],
      "stateMutability": "view",
      "type": "function"
    },
    {
      "inputs": [],
      "name": "totalSupply",
      "outputs": [
        {
          "internalType": "uint256",
          "name": "",
          "type": "uint256"
        }
      ],
      "stateMutability": "view",
      "type": "function"
    },
    {
      "inputs": [
        {
          "internalType": "address",
          "name": "to",
          "type": "address"
        },
        {
          "internalType": "uint256",
          "name": "value",
          "type": "uint256"
        }
      ],
      "name": "transfer",
      "outputs": [
        {
          "internalType": "bool",
          "name": "",
          "type": "bool"
        }
      ],
      "stateMutability": "nonpayable",
      "type": "function"
    },
    {
      "inputs": [
        {
          "internalType": "address",
          "name": "from",
          "type": "address"
        },
        {
          "internalType": "address",
          "name": "to",
          "type": "address"
        },
        {
          "internalType": "uint256",
          "name": "value",
          "type": "uint256"
        }
      ],
      "name": "transferFrom",
      "outputs": [
        {
          "internalType": "bool",
          "name": "",
          "type": "bool"
        }
      ],
      "stateMutability": "nonpayable",
      "type": "function"
    },
    {
      "inputs": [
        {
          "internalType": "address",
          "name": "newOwner",
          "type": "address"
        }
      ],
      "name": "transferOwnership",
      "outputs": [],
      "stateMutability": "nonpayable",
      "type": "function"
    }
  ],
  "bytecode": "0x6101606040523480156200001257600080fd5b50604051620020b0380380620020b0833981016040819052620000359162000460565b33604051806040016040528060058152602001642232b3b2b760d91b81525080604051806040016040528060018152602001603160f81b815250604051806040016040528060058152602001642232b3b2b760d91b815250604051806040016040528060058152602001642222a3a2a760d91b8152508160039081620000bc91906200051f565b506004620000cb82826200051f565b50620000dd9150839050600562000221565b61012052620000ee81600662000221565b61014052815160208084019190912060e052815190820120610100524660a0526200017c60e05161010051604080517f8b73c3c69bb8fe3d512ecc4cf759cc79239f7b179b0ffacaa9a75d522b39400f60208201529081019290925260608201524660808201523060a082015260009060c00160405160208183030381529060405280519060200120905090565b60805250503060c052506001600160a01b038116620001b657604051631e4fbdf760e01b8152600060048201526024015b60405180910390fd5b620001c1816200025a565b5042811015620001ee57604051630a4fa5a960e41b815242600482015260248101829052604401620001ad565b6200021833620002016012600a620006fe565b62000212906401a13b860062000716565b620002ac565b600955620007bb565b600060208351101562000241576200023983620002ea565b905062000254565b816200024e84826200051f565b5060ff90505b92915050565b600880546001600160a01b038381166001600160a01b0319831681179093556040519116919082907f8be0079c531659141344cd1fd0a4f28419497f9722a3daafe3b4186f6b6457e090600090a35050565b6001600160a01b038216620002d85760405163ec442f0560e01b815260006004820152602401620001ad565b620002e6600083836200032d565b5050565b600080829050601f8151111562000318578260405163305a27a960e01b8152600401620001ad919062000730565b8051620003258262000780565b179392505050565b6001600160a01b0383166200035c578060026000828254620003509190620007a5565b90915550620003d09050565b6001600160a01b03831660009081526020819052604090205481811015620003b15760405163391434e360e21b81526001600160a01b03851660048201526024810182905260448101839052606401620001ad565b6001600160a01b03841660009081526020819052604090209082900390555b6001600160a01b038216620003ee576002805482900390556200040d565b6001600160a01b03821660009081526020819052604090208054820190555b816001600160a01b0316836001600160a01b03167fddf252ad1be2c89b69c2b068fc378daa952ba7f163c4a11628f55a4df523b3ef836040516200045391815260200190565b60405180910390a3505050565b6000602082840312156200047357600080fd5b5051919050565b634e487b7160e01b600052604160045260246000fd5b600181811c90821680620004a557607f821691505b602082108103620004c657634e487b7160e01b600052602260045260246000fd5b50919050565b601f8211156200051a57600081815260208120601f850160051c81016020861015620004f55750805b601f850160051c820191505b81811015620005165782815560010162000501565b5050505b505050565b81516001600160401b038111156200053b576200053b6200047a565b62000553816200054c845462000490565b84620004cc565b602080601f8311600181146200058b5760008415620005725750858301515b600019600386901b1c1916600185901b17855562000516565b600085815260208120601f198616915b82811015620005bc578886015182559484019460019091019084016200059b565b5085821015620005db5787850151600019600388901b60f8161c191681555b5050505050600190811b01905550565b634e487b7160e01b600052601160045260246000fd5b600181815b8085111562000642578160001904821115620006265762000626620005eb565b808516156200063457918102915b93841c939080029062000606565b509250929050565b6000826200065b5750600162000254565b816200066a5750600062000254565b81600181146200068357600281146200068e57620006ae565b600191505062000254565b60ff841115620006a257620006a2620005eb565b50506001821b62000254565b5060208310610133831016604e8410600b8410161715620006d3575081810a62000254565b620006df838362000601565b8060001904821115620006f657620006f6620005eb565b029392505050565b60006200070f60ff8416836200064a565b9392505050565b8082028115828204841417620002545762000254620005eb565b600060208083528351808285015260005b818110156200075f5785810183015185820160400152820162000741565b506000604082860101526040601f19601f8301168501019250505092915050565b80516020808301519190811015620004c65760001960209190910360031b1b16919050565b80820180821115620002545762000254620005eb565b60805160a05160c05160e05161010051610120516101405161189a620008166000396000610da801526000610d7b01526000610c5001526000610c2801526000610b8301526000610bad01526000610bd7015261189a6000f3fe608060405234801561001057600080fd5b50600436106101a35760003560e01c806370a08231116100ee57806395d89b4111610097578063b152f6cf11610071578063b152f6cf146103be578063d505accf146103ca578063dd62ed3e146103dd578063f2fde38b1461042357600080fd5b806395d89b411461039b57806398f1312e146103a3578063a9059cbb146103ab57600080fd5b80637ecebe00116100c85780637ecebe001461034557806384b0196e146103585780638da5cb5b1461037357600080fd5b806370a08231146102f4578063715018a61461032a57806379cc67901461033257600080fd5b806323b872dd11610150578063313ce5671161012a578063313ce567146102c45780633644e515146102d957806342966c68146102e157600080fd5b806323b872dd1461026c5780632a9053181461027f57806330b36cef146102bb57600080fd5b806318160ddd1161018157806318160ddd14610209578063188214001461021b5780631b025a401461025757600080fd5b806306fdde03146101a8578063095ea7b3146101c65780630d8c0205146101e9575b600080fd5b6101b0610436565b6040516101bd91906114c4565b60405180910390f35b6101d96101d4366004611507565b6104c8565b60405190151581526020016101bd565b6101f46301e1338081565b60405163ffffffff90911681526020016101bd565b6002545b6040519081526020016101bd565b6101b06040518060400160405280600581526020017f446567656e00000000000000000000000000000000000000000000000000000081525081565b61026a610265366004611531565b6104e2565b005b6101d961027a366004611579565b610608565b6101b06040518060400160405280600581526020017f444547454e00000000000000000000000000000000000000000000000000000081525081565b61020d60095481565b60125b60405160ff90911681526020016101bd565b61020d61062c565b61026a6102ef3660046115b5565b61063b565b61020d6103023660046115ce565b73ffffffffffffffffffffffffffffffffffffffff1660009081526020819052604090205490565b61026a610648565b61026a610340366004611507565b61065c565b61020d6103533660046115ce565b610671565b61036061069c565b6040516101bd97969594939291906115e9565b60085460405173ffffffffffffffffffffffffffffffffffffffff90911681526020016101bd565b6101b06106fe565b6102c7600181565b6101d96103b9366004611507565b61070d565b61020d6401a13b860081565b61026a6103d83660046116a8565b61071b565b61020d6103eb36600461171b565b73ffffffffffffffffffffffffffffffffffffffff918216600090815260016020908152604080832093909416825291909152205490565b61026a6104313660046115ce565b6108cd565b6060600380546104459061174e565b80601f01602080910402602001604051908101604052809291908181526020018280546104719061174e565b80156104be5780601f10610493576101008083540402835291602001916104be565b820191906000526020600020905b8154815290600101906020018083116104a157829003601f168201915b5050505050905090565b6000336104d681858561092e565b60019150505b92915050565b6104ea610940565b600954421015610526576040517f5515cbd200000000000000000000000000000000000000000000000000000000815260040160405180910390fd5b73ffffffffffffffffffffffffffffffffffffffff8216610573576040517ffa7b55d600000000000000000000000000000000000000000000000000000000815260040160405180910390fd5b6105816301e13380426117d0565b6009556064600161059160025490565b61059b91906117e3565b6105a591906117fa565b816bffffffffffffffffffffffff1611156105ec576040517fb7a7842300000000000000000000000000000000000000000000000000000000815260040160405180910390fd5b61060482826bffffffffffffffffffffffff16610993565b5050565b6000336106168582856109ef565b610621858585610abe565b506001949350505050565b6000610636610b69565b905090565b6106453382610ca1565b50565b610650610940565b61065a6000610cfd565b565b6106678233836109ef565b6106048282610ca1565b73ffffffffffffffffffffffffffffffffffffffff81166000908152600760205260408120546104dc565b6000606080600080600060606106b0610d74565b6106b8610da1565b604080516000808252602082019092527f0f000000000000000000000000000000000000000000000000000000000000009b939a50919850469750309650945092509050565b6060600480546104459061174e565b6000336104d6818585610abe565b8342111561075d576040517f62791302000000000000000000000000000000000000000000000000000000008152600481018590526024015b60405180910390fd5b60007f6e71edae12b1b97f4d1f60370fef10105fa2faae0126114a169c64845d6126c98888886107b78c73ffffffffffffffffffffffffffffffffffffffff16600090815260076020526040902080546001810190915590565b60408051602081019690965273ffffffffffffffffffffffffffffffffffffffff94851690860152929091166060840152608083015260a082015260c0810186905260e001604051602081830303815290604052805190602001209050600061081f82610dce565b9050600061082f82878787610e16565b90508973ffffffffffffffffffffffffffffffffffffffff168173ffffffffffffffffffffffffffffffffffffffff16146108b6576040517f4b800e4600000000000000000000000000000000000000000000000000000000815273ffffffffffffffffffffffffffffffffffffffff80831660048301528b166024820152604401610754565b6108c18a8a8a61092e565b50505050505050505050565b6108d5610940565b73ffffffffffffffffffffffffffffffffffffffff8116610925576040517f1e4fbdf700000000000000000000000000000000000000000000000000000000815260006004820152602401610754565b61064581610cfd565b61093b8383836001610e44565b505050565b60085473ffffffffffffffffffffffffffffffffffffffff16331461065a576040517f118cdaa7000000000000000000000000000000000000000000000000000000008152336004820152602401610754565b73ffffffffffffffffffffffffffffffffffffffff82166109e3576040517fec442f0500000000000000000000000000000000000000000000000000000000815260006004820152602401610754565b61060460008383610f8c565b73ffffffffffffffffffffffffffffffffffffffff8381166000908152600160209081526040808320938616835292905220547fffffffffffffffffffffffffffffffffffffffffffffffffffffffffffffffff8114610ab85781811015610aa9576040517ffb8f41b200000000000000000000000000000000000000000000000000000000815273ffffffffffffffffffffffffffffffffffffffff841660048201526024810182905260448101839052606401610754565b610ab884848484036000610e44565b50505050565b73ffffffffffffffffffffffffffffffffffffffff8316610b0e576040517f96c6fd1e00000000000000000000000000000000000000000000000000000000815260006004820152602401610754565b73ffffffffffffffffffffffffffffffffffffffff8216610b5e576040517fec442f0500000000000000000000000000000000000000000000000000000000815260006004820152602401610754565b61093b838383610f8c565b60003073ffffffffffffffffffffffffffffffffffffffff7f000000000000000000000000000000000000000000000000000000000000000016148015610bcf57507f000000000000000000000000000000000000000000000000000000000000000046145b15610bf957507f000000000000000000000000000000000000000000000000000000000000000090565b610636604080517f8b73c3c69bb8fe3d512ecc4cf759cc79239f7b179b0ffacaa9a75d522b39400f60208201527f0000000000000000000000000000000000000000000000000000000000000000918101919091527f000000000000000000000000000000000000000000000000000000000000000060608201524660808201523060a082015260009060c00160405160208183030381529060405280519060200120905090565b73ffffffffffffffffffffffffffffffffffffffff8216610cf1576040517f96c6fd1e00000000000000000000000000000000000000000000000000000000815260006004820152602401610754565b61060482600083610f8c565b6008805473ffffffffffffffffffffffffffffffffffffffff8381167fffffffffffffffffffffffff0000000000000000000000000000000000000000831681179093556040519116919082907f8be0079c531659141344cd1fd0a4f28419497f9722a3daafe3b4186f6b6457e090600090a35050565b60606106367f00000000000000000000000000000000000000000000000000000000000000006005611137565b60606106367f00000000000000000000000000000000000000000000000000000000000000006006611137565b60006104dc610ddb610b69565b836040517f19010000000000000000000000000000000000000000000000000000000000008152600281019290925260228201526042902090565b600080600080610e28888888886111e2565b925092509250610e3882826112dc565b50909695505050505050565b73ffffffffffffffffffffffffffffffffffffffff8416610e94576040517fe602df0500000000000000000000000000000000000000000000000000000000815260006004820152602401610754565b73ffffffffffffffffffffffffffffffffffffffff8316610ee4576040517f94280d6200000000000000000000000000000000000000000000000000000000815260006004820152602401610754565b73ffffffffffffffffffffffffffffffffffffffff80851660009081526001602090815260408083209387168352929052208290558015610ab8578273ffffffffffffffffffffffffffffffffffffffff168473ffffffffffffffffffffffffffffffffffffffff167f8c5be1e5ebec7d5bd14f71427d1e84f3dd0314c0f7b2291e5b200ac8c7c3b92584604051610f7e91815260200190565b60405180910390a350505050565b73ffffffffffffffffffffffffffffffffffffffff8316610fc4578060026000828254610fb991906117d0565b909155506110769050565b73ffffffffffffffffffffffffffffffffffffffff83166000908152602081905260409020548181101561104a576040517fe450d38c00000000000000000000000000000000000000000000000000000000815273ffffffffffffffffffffffffffffffffffffffff851660048201526024810182905260448101839052606401610754565b73ffffffffffffffffffffffffffffffffffffffff841660009081526020819052604090209082900390555b73ffffffffffffffffffffffffffffffffffffffff821661109f576002805482900390556110cb565b73ffffffffffffffffffffffffffffffffffffffff821660009081526020819052604090208054820190555b8173ffffffffffffffffffffffffffffffffffffffff168373ffffffffffffffffffffffffffffffffffffffff167fddf252ad1be2c89b69c2b068fc378daa952ba7f163c4a11628f55a4df523b3ef8360405161112a91815260200190565b60405180910390a3505050565b606060ff83146111515761114a836113e0565b90506104dc565b81805461115d9061174e565b80601f01602080910402602001604051908101604052809291908181526020018280546111899061174e565b80156111d65780601f106111ab576101008083540402835291602001916111d6565b820191906000526020600020905b8154815290600101906020018083116111b957829003601f168201915b505050505090506104dc565b600080807f7fffffffffffffffffffffffffffffff5d576e7357a4501ddfe92f46681b20a084111561121d57506000915060039050826112d2565b604080516000808252602082018084528a905260ff891692820192909252606081018790526080810186905260019060a0016020604051602081039080840390855afa158015611271573d6000803e3d6000fd5b50506040517fffffffffffffffffffffffffffffffffffffffffffffffffffffffffffffffe0015191505073ffffffffffffffffffffffffffffffffffffffff81166112c8575060009250600191508290506112d2565b9250600091508190505b9450945094915050565b60008260038111156112f0576112f0611835565b036112f9575050565b600182600381111561130d5761130d611835565b03611344576040517ff645eedf00000000000000000000000000000000000000000000000000000000815260040160405180910390fd5b600282600381111561135857611358611835565b03611392576040517ffce698f700000000000000000000000000000000000000000000000000000000815260048101829052602401610754565b60038260038111156113a6576113a6611835565b03610604576040517fd78bce0c00000000000000000000000000000000000000000000000000000000815260048101829052602401610754565b606060006113ed8361141f565b604080516020808252818301909252919250600091906020820181803683375050509182525060208101929092525090565b600060ff8216601f8111156104dc576040517fb3512b0c00000000000000000000000000000000000000000000000000000000815260040160405180910390fd5b6000815180845260005b818110156114865760208185018101518683018201520161146a565b5060006020828601015260207fffffffffffffffffffffffffffffffffffffffffffffffffffffffffffffffe0601f83011685010191505092915050565b6020815260006114d76020830184611460565b9392505050565b803573ffffffffffffffffffffffffffffffffffffffff8116811461150257600080fd5b919050565b6000806040838503121561151a57600080fd5b611523836114de565b946020939093013593505050565b6000806040838503121561154457600080fd5b61154d836114de565b915060208301356bffffffffffffffffffffffff8116811461156e57600080fd5b809150509250929050565b60008060006060848603121561158e57600080fd5b611597846114de565b92506115a5602085016114de565b9150604084013590509250925092565b6000602082840312156115c757600080fd5b5035919050565b6000602082840312156115e057600080fd5b6114d7826114de565b7fff00000000000000000000000000000000000000000000000000000000000000881681526000602060e08184015261162560e084018a611460565b8381036040850152611637818a611460565b6060850189905273ffffffffffffffffffffffffffffffffffffffff8816608086015260a0850187905284810360c0860152855180825283870192509083019060005b818110156116965783518352928401929184019160010161167a565b50909c9b505050505050505050505050565b600080600080600080600060e0888a0312156116c357600080fd5b6116cc886114de565b96506116da602089016114de565b95506040880135945060608801359350608088013560ff811681146116fe57600080fd5b9699959850939692959460a0840135945060c09093013592915050565b6000806040838503121561172e57600080fd5b611737836114de565b9150611745602084016114de565b90509250929050565b600181811c9082168061176257607f821691505b60208210810361179b577f4e487b7100000000000000000000000000000000000000000000000000000000600052602260045260246000fd5b50919050565b7f4e487b7100000000000000000000000000000000000000000000000000000000600052601160045260246000fd5b808201808211156104dc576104dc6117a1565b80820281158282048414176104dc576104dc6117a1565b600082611830577f4e487b7100000000000000000000000000000000000000000000000000000000600052601260045260246000fd5b500490565b7f4e487b7100000000000000000000000000000000000000000000000000000000600052602160045260246000fdfea2646970667358221220dc8081c55e203ff06b5e4ddf006ffa56256d154ddaf04a6bec6e854a2548ed0664736f6c63430008140033",
  "linkReferences": {},
  "deployedLinkReferences": {}
}