{
  "_format": "hh-sol-artifact-1",
  "contractName": "DegenAirdrop1",
  "sourceName": "contracts/DegenAirdrop1.sol",
  "abi": [
    {
      "inputs": [
        {
          "internalType": "address",
          "name": "token_",
          "type": "address"
        },
        {
          "internalType": "bytes32",
          "name": "merkleRoot_",
          "type": "bytes32"
        },
        {
          "internalType": "uint256",
          "name": "endTime_",
          "type": "uint256"
        }
      ],
      "stateMutability": "nonpayable",
      "type": "constructor"
    },
    {
      "inputs": [
        {
          "internalType": "address",
          "name": "target",
          "type": "address"
        }
      ],
      "name": "AddressEmptyCode",
      "type": "error"
    },
    {
      "inputs": [
        {
          "internalType": "address",
          "name": "account",
          "type": "address"
        }
      ],
      "name": "AddressInsufficientBalance",
      "type": "error"
    },
    {
      "inputs": [],
      "name": "AlreadyClaimed",
      "type": "error"
    },
    {
      "inputs": [],
      "name": "ClaimWindowFinished",
      "type": "error"
    },
    {
      "inputs": [],
      "name": "EndTimeInPast",
      "type": "error"
    },
    {
      "inputs": [],
      "name": "FailedInnerCall",
      "type": "error"
    },
    {
      "inputs": [],
      "name": "InvalidProof",
      "type": "error"
    },
    {
      "inputs": [],
      "name": "NoWithdrawDuringClaim",
      "type": "error"
    },
    {
      "inputs": [
        {
          "internalType": "address",
          "name": "owner",
          "type": "address"
        }
      ],
      "name": "OwnableInvalidOwner",
      "type": "error"
    },
    {
      "inputs": [
        {
          "internalType": "address",
          "name": "account",
          "type": "address"
        }
      ],
      "name": "OwnableUnauthorizedAccount",
      "type": "error"
    },
    {
      "inputs": [
        {
          "internalType": "address",
          "name": "token",
          "type": "address"
        }
      ],
      "name": "SafeERC20FailedOperation",
      "type": "error"
    },
    {
      "anonymous": false,
      "inputs": [
        {
          "indexed": true,
          "internalType": "uint256",
          "name": "index",
          "type": "uint256"
        },
        {
          "indexed": true,
          "internalType": "address",
          "name": "account",
          "type": "address"
        },
        {
          "indexed": true,
          "internalType": "uint256",
          "name": "amount",
          "type": "uint256"
        }
      ],
      "name": "Claimed",
      "type": "event"
    },
    {
      "anonymous": false,
      "inputs": [
        {
          "indexed": true,
          "internalType": "address",
          "name": "previousOwner",
          "type": "address"
        },
        {
          "indexed": true,
          "internalType": "address",
          "name": "newOwner",
          "type": "address"
        }
      ],
      "name": "OwnershipTransferred",
      "type": "event"
    },
    {
      "inputs": [],
      "name": "END_TIME",
      "outputs": [
        {
          "internalType": "uint256",
          "name": "",
          "type": "uint256"
        }
      ],
      "stateMutability": "view",
      "type": "function"
    },
    {
      "inputs": [],
      "name": "MERKLE_ROOT",
      "outputs": [
        {
          "internalType": "bytes32",
          "name": "",
          "type": "bytes32"
        }
      ],
      "stateMutability": "view",
      "type": "function"
    },
    {
      "inputs": [],
      "name": "TOKEN",
      "outputs": [
        {
          "internalType": "address",
          "name": "",
          "type": "address"
        }
      ],
      "stateMutability": "view",
      "type": "function"
    },
    {
      "inputs": [
        {
          "internalType": "uint256",
          "name": "index",
          "type": "uint256"
        },
        {
          "internalType": "address",
          "name": "account",
          "type": "address"
        },
        {
          "internalType": "uint256",
          "name": "amount",
          "type": "uint256"
        },
        {
          "internalType": "bytes32[]",
          "name": "merkleProof",
          "type": "bytes32[]"
        }
      ],
      "name": "claim",
      "outputs": [],
      "stateMutability": "nonpayable",
      "type": "function"
    },
    {
      "inputs": [
        {
          "internalType": "uint256",
          "name": "index",
          "type": "uint256"
        }
      ],
      "name": "isClaimed",
      "outputs": [
        {
          "internalType": "bool",
          "name": "",
          "type": "bool"
        }
      ],
      "stateMutability": "view",
      "type": "function"
    },
    {
      "inputs": [],
      "name": "owner",
      "outputs": [
        {
          "internalType": "address",
          "name": "",
          "type": "address"
        }
      ],
      "stateMutability": "view",
      "type": "function"
    },
    {
      "inputs": [],
      "name": "renounceOwnership",
      "outputs": [],
      "stateMutability": "nonpayable",
      "type": "function"
    },
    {
      "inputs": [
        {
          "internalType": "address",
          "name": "newOwner",
          "type": "address"
        }
      ],
      "name": "transferOwnership",
      "outputs": [],
      "stateMutability": "nonpayable",
      "type": "function"
    },
    {
      "inputs": [],
      "name": "withdraw",
      "outputs": [],
      "stateMutability": "nonpayable",
      "type": "function"
    }
  ],
  "bytecode": "0x60e060405234801561001057600080fd5b50604051610e21380380610e2183398101604081905261002f916100e8565b338061005557604051631e4fbdf760e01b81526000600482015260240160405180910390fd5b61005e81610098565b5042811161007f576040516372e54d4d60e01b815260040160405180910390fd5b60c0526001600160a01b0390911660805260a05261012b565b600080546001600160a01b038381166001600160a01b0319831681178455604051919092169283917f8be0079c531659141344cd1fd0a4f28419497f9722a3daafe3b4186f6b6457e09190a35050565b6000806000606084860312156100fd57600080fd5b83516001600160a01b038116811461011457600080fd5b602085015160409095015190969495509392505050565b60805160a05160c051610c9e6101836000396000818160c2015281816101d001526103fd01526000818161010401526102fb0152600081816101330152818161037f0152818161049e01526105200152610c9e6000f3fe608060405234801561001057600080fd5b50600436106100a35760003560e01c8063715018a6116100765780638da5cb5b1161005b5780638da5cb5b1461017a5780639e34070f14610198578063f2fde38b146101bb57600080fd5b8063715018a61461012657806382bfefc81461012e57600080fd5b80632e7ba6ef146100a857806337ba682d146100bd5780633ccfd60b146100f757806351e75e8b146100ff575b600080fd5b6100bb6100b6366004610a4e565b6101ce565b005b6100e47f000000000000000000000000000000000000000000000000000000000000000081565b6040519081526020015b60405180910390f35b6100bb6103f3565b6100e47f000000000000000000000000000000000000000000000000000000000000000081565b6100bb610549565b6101557f000000000000000000000000000000000000000000000000000000000000000081565b60405173ffffffffffffffffffffffffffffffffffffffff90911681526020016100ee565b60005473ffffffffffffffffffffffffffffffffffffffff16610155565b6101ab6101a6366004610ae5565b61055b565b60405190151581526020016100ee565b6100bb6101c9366004610afe565b61059c565b7f0000000000000000000000000000000000000000000000000000000000000000421115610228576040517fd365f61100000000000000000000000000000000000000000000000000000000815260040160405180910390fd5b6102318561055b565b15610268576040517f646cf55800000000000000000000000000000000000000000000000000000000815260040160405180910390fd5b60408051602081018790527fffffffffffffffffffffffffffffffffffffffff000000000000000000000000606087901b1691810191909152605481018490526000906074016040516020818303038152906040528051906020012090506103268383808060200260200160405190810160405280939291908181526020018383602002808284376000920191909152507f000000000000000000000000000000000000000000000000000000000000000092508591506106059050565b61035c576040517f09bde33900000000000000000000000000000000000000000000000000000000815260040160405180910390fd5b6103658661061d565b6103a673ffffffffffffffffffffffffffffffffffffffff7f000000000000000000000000000000000000000000000000000000000000000016868661065c565b838573ffffffffffffffffffffffffffffffffffffffff16877f4ec90e965519d92681267467f775ada5bd214aa92c0dc93d90a5e880ce9ed02660405160405180910390a4505050505050565b6103fb6106ee565b7f0000000000000000000000000000000000000000000000000000000000000000421015610455576040517fee56a2b000000000000000000000000000000000000000000000000000000000815260040160405180910390fd5b6040517f70a0823100000000000000000000000000000000000000000000000000000000815230600482015261054790339073ffffffffffffffffffffffffffffffffffffffff7f000000000000000000000000000000000000000000000000000000000000000016906370a0823190602401602060405180830381865afa1580156104e5573d6000803e3d6000fd5b505050506040513d601f19601f820116820180604052508101906105099190610b19565b73ffffffffffffffffffffffffffffffffffffffff7f000000000000000000000000000000000000000000000000000000000000000016919061065c565b565b6105516106ee565b6105476000610741565b60008061056a61010084610b61565b9050600061057a61010085610b75565b60009283526001602081905260409093205492901b9182169091149392505050565b6105a46106ee565b73ffffffffffffffffffffffffffffffffffffffff81166105f9576040517f1e4fbdf7000000000000000000000000000000000000000000000000000000008152600060048201526024015b60405180910390fd5b61060281610741565b50565b60008261061285846107b6565b1490505b9392505050565b600061062b61010083610b61565b9050600061063b61010084610b75565b600092835260016020819052604090932080549390911b9092179091555050565b6040805173ffffffffffffffffffffffffffffffffffffffff8416602482015260448082018490528251808303909101815260649091019091526020810180517bffffffffffffffffffffffffffffffffffffffffffffffffffffffff167fa9059cbb000000000000000000000000000000000000000000000000000000001790526106e9908490610803565b505050565b60005473ffffffffffffffffffffffffffffffffffffffff163314610547576040517f118cdaa70000000000000000000000000000000000000000000000000000000081523360048201526024016105f0565b6000805473ffffffffffffffffffffffffffffffffffffffff8381167fffffffffffffffffffffffff0000000000000000000000000000000000000000831681178455604051919092169283917f8be0079c531659141344cd1fd0a4f28419497f9722a3daafe3b4186f6b6457e09190a35050565b600081815b84518110156107fb576107e7828683815181106107da576107da610b89565b6020026020010151610899565b9150806107f381610bb8565b9150506107bb565b509392505050565b600061082573ffffffffffffffffffffffffffffffffffffffff8416836108c5565b9050805160001415801561084a5750808060200190518101906108489190610c17565b155b156106e9576040517f5274afe700000000000000000000000000000000000000000000000000000000815273ffffffffffffffffffffffffffffffffffffffff841660048201526024016105f0565b60008183106108b5576000828152602084905260409020610616565b5060009182526020526040902090565b606061061683836000846000808573ffffffffffffffffffffffffffffffffffffffff1684866040516108f89190610c39565b60006040518083038185875af1925050503d8060008114610935576040519150601f19603f3d011682016040523d82523d6000602084013e61093a565b606091505b509150915061094a868383610954565b9695505050505050565b60608261096957610964826109e3565b610616565b815115801561098d575073ffffffffffffffffffffffffffffffffffffffff84163b155b156109dc576040517f9996b31500000000000000000000000000000000000000000000000000000000815273ffffffffffffffffffffffffffffffffffffffff851660048201526024016105f0565b5080610616565b8051156109f35780518082602001fd5b6040517f1425ea4200000000000000000000000000000000000000000000000000000000815260040160405180910390fd5b803573ffffffffffffffffffffffffffffffffffffffff81168114610a4957600080fd5b919050565b600080600080600060808688031215610a6657600080fd5b85359450610a7660208701610a25565b935060408601359250606086013567ffffffffffffffff80821115610a9a57600080fd5b818801915088601f830112610aae57600080fd5b813581811115610abd57600080fd5b8960208260051b8501011115610ad257600080fd5b9699959850939650602001949392505050565b600060208284031215610af757600080fd5b5035919050565b600060208284031215610b1057600080fd5b61061682610a25565b600060208284031215610b2b57600080fd5b5051919050565b7f4e487b7100000000000000000000000000000000000000000000000000000000600052601260045260246000fd5b600082610b7057610b70610b32565b500490565b600082610b8457610b84610b32565b500690565b7f4e487b7100000000000000000000000000000000000000000000000000000000600052603260045260246000fd5b60007fffffffffffffffffffffffffffffffffffffffffffffffffffffffffffffffff8203610c10577f4e487b7100000000000000000000000000000000000000000000000000000000600052601160045260246000fd5b5060010190565b600060208284031215610c2957600080fd5b8151801515811461061657600080fd5b6000825160005b81811015610c5a5760208186018101518583015201610c40565b50600092019182525091905056fea26469706673582212204eb04d73602c886d7e668fb2964cf8edd70435ec39a72384eda084c2ffdaba5c64736f6c63430008140033",
  "linkReferences": {},
  "deployedLinkReferences": {}
}