{
  "_format": "hh-sol-artifact-1",
  "contractName": "DegenAirdrop1",
  "sourceName": "contracts/DegenAirdrop1.sol",
  "abi": [
    {
      "inputs": [
        {
          "internalType": "address",
          "name": "token_",
          "type": "address"
        },
        {
          "internalType": "bytes32",
          "name": "merkleRoot_",
          "type": "bytes32"
        },
        {
          "internalType": "uint256",
          "name": "endTime_",
          "type": "uint256"
        }
      ],
      "stateMutability": "nonpayable",
      "type": "constructor"
    },
    {
      "inputs": [
        {
          "internalType": "address",
          "name": "target",
          "type": "address"
        }
      ],
      "name": "AddressEmptyCode",
      "type": "error"
    },
    {
      "inputs": [
        {
          "internalType": "address",
          "name": "account",
          "type": "address"
        }
      ],
      "name": "AddressInsufficientBalance",
      "type": "error"
    },
    {
      "inputs": [],
      "name": "AlreadyClaimed",
      "type": "error"
    },
    {
      "inputs": [],
      "name": "ClaimWindowFinished",
      "type": "error"
    },
    {
      "inputs": [],
      "name": "EndTimeInPast",
      "type": "error"
    },
    {
      "inputs": [],
      "name": "FailedInnerCall",
      "type": "error"
    },
    {
      "inputs": [],
      "name": "InvalidProof",
      "type": "error"
    },
    {
      "inputs": [],
      "name": "NoWithdrawDuringClaim",
      "type": "error"
    },
    {
      "inputs": [
        {
          "internalType": "address",
          "name": "owner",
          "type": "address"
        }
      ],
      "name": "OwnableInvalidOwner",
      "type": "error"
    },
    {
      "inputs": [
        {
          "internalType": "address",
          "name": "account",
          "type": "address"
        }
      ],
      "name": "OwnableUnauthorizedAccount",
      "type": "error"
    },
    {
      "inputs": [
        {
          "internalType": "address",
          "name": "token",
          "type": "address"
        }
      ],
      "name": "SafeERC20FailedOperation",
      "type": "error"
    },
    {
      "inputs": [
        {
          "internalType": "address",
          "name": "sender",
          "type": "address"
        }
      ],
      "name": "UnauthorizedClaim",
      "type": "error"
    },
    {
      "anonymous": false,
      "inputs": [
        {
          "indexed": true,
          "internalType": "uint256",
          "name": "index",
          "type": "uint256"
        },
        {
          "indexed": true,
          "internalType": "address",
          "name": "account",
          "type": "address"
        },
        {
          "indexed": true,
          "internalType": "uint256",
          "name": "amount",
          "type": "uint256"
        }
      ],
      "name": "Claimed",
      "type": "event"
    },
    {
      "anonymous": false,
      "inputs": [
        {
          "indexed": true,
          "internalType": "address",
          "name": "previousOwner",
          "type": "address"
        },
        {
          "indexed": true,
          "internalType": "address",
          "name": "newOwner",
          "type": "address"
        }
      ],
      "name": "OwnershipTransferred",
      "type": "event"
    },
    {
      "inputs": [],
      "name": "END_TIME",
      "outputs": [
        {
          "internalType": "uint256",
          "name": "",
          "type": "uint256"
        }
      ],
      "stateMutability": "view",
      "type": "function"
    },
    {
      "inputs": [],
      "name": "MERKLE_ROOT",
      "outputs": [
        {
          "internalType": "bytes32",
          "name": "",
          "type": "bytes32"
        }
      ],
      "stateMutability": "view",
      "type": "function"
    },
    {
      "inputs": [],
      "name": "TOKEN",
      "outputs": [
        {
          "internalType": "address",
          "name": "",
          "type": "address"
        }
      ],
      "stateMutability": "view",
      "type": "function"
    },
    {
      "inputs": [
        {
          "internalType": "uint256",
          "name": "index",
          "type": "uint256"
        },
        {
          "internalType": "address",
          "name": "account",
          "type": "address"
        },
        {
          "internalType": "uint256",
          "name": "amount",
          "type": "uint256"
        },
        {
          "internalType": "bytes32[]",
          "name": "merkleProof",
          "type": "bytes32[]"
        }
      ],
      "name": "claim",
      "outputs": [],
      "stateMutability": "nonpayable",
      "type": "function"
    },
    {
      "inputs": [
        {
          "internalType": "uint256",
          "name": "index",
          "type": "uint256"
        }
      ],
      "name": "isClaimed",
      "outputs": [
        {
          "internalType": "bool",
          "name": "",
          "type": "bool"
        }
      ],
      "stateMutability": "view",
      "type": "function"
    },
    {
      "inputs": [],
      "name": "owner",
      "outputs": [
        {
          "internalType": "address",
          "name": "",
          "type": "address"
        }
      ],
      "stateMutability": "view",
      "type": "function"
    },
    {
      "inputs": [],
      "name": "renounceOwnership",
      "outputs": [],
      "stateMutability": "nonpayable",
      "type": "function"
    },
    {
      "inputs": [
        {
          "internalType": "address",
          "name": "newOwner",
          "type": "address"
        }
      ],
      "name": "transferOwnership",
      "outputs": [],
      "stateMutability": "nonpayable",
      "type": "function"
    },
    {
      "inputs": [],
      "name": "withdraw",
      "outputs": [],
      "stateMutability": "nonpayable",
      "type": "function"
    }
  ],
  "bytecode": "0x60e060405234801561001057600080fd5b50604051610e88380380610e8883398101604081905261002f916100e8565b338061005557604051631e4fbdf760e01b81526000600482015260240160405180910390fd5b61005e81610098565b5042811161007f576040516372e54d4d60e01b815260040160405180910390fd5b60c0526001600160a01b0390911660805260a05261012b565b600080546001600160a01b038381166001600160a01b0319831681178455604051919092169283917f8be0079c531659141344cd1fd0a4f28419497f9722a3daafe3b4186f6b6457e09190a35050565b6000806000606084860312156100fd57600080fd5b83516001600160a01b038116811461011457600080fd5b602085015160409095015190969495509392505050565b60805160a05160c051610d056101836000396000818160c2015281816101d001526104690152600081816101040152610367015260008181610133015281816103eb0152818161050a015261058c0152610d056000f3fe608060405234801561001057600080fd5b50600436106100a35760003560e01c8063715018a6116100765780638da5cb5b1161005b5780638da5cb5b1461017a5780639e34070f14610198578063f2fde38b146101bb57600080fd5b8063715018a61461012657806382bfefc81461012e57600080fd5b80632e7ba6ef146100a857806337ba682d146100bd5780633ccfd60b146100f757806351e75e8b146100ff575b600080fd5b6100bb6100b6366004610ab5565b6101ce565b005b6100e47f000000000000000000000000000000000000000000000000000000000000000081565b6040519081526020015b60405180910390f35b6100bb61045f565b6100e47f000000000000000000000000000000000000000000000000000000000000000081565b6100bb6105b5565b6101557f000000000000000000000000000000000000000000000000000000000000000081565b60405173ffffffffffffffffffffffffffffffffffffffff90911681526020016100ee565b60005473ffffffffffffffffffffffffffffffffffffffff16610155565b6101ab6101a6366004610b4c565b6105c7565b60405190151581526020016100ee565b6100bb6101c9366004610b65565b610608565b7f0000000000000000000000000000000000000000000000000000000000000000421115610228576040517fd365f61100000000000000000000000000000000000000000000000000000000815260040160405180910390fd5b73ffffffffffffffffffffffffffffffffffffffff84163314610294576040517f343cafcc00000000000000000000000000000000000000000000000000000000815273ffffffffffffffffffffffffffffffffffffffff851660048201526024015b60405180910390fd5b61029d856105c7565b156102d4576040517f646cf55800000000000000000000000000000000000000000000000000000000815260040160405180910390fd5b60408051602081018790527fffffffffffffffffffffffffffffffffffffffff000000000000000000000000606087901b1691810191909152605481018490526000906074016040516020818303038152906040528051906020012090506103928383808060200260200160405190810160405280939291908181526020018383602002808284376000920191909152507f0000000000000000000000000000000000000000000000000000000000000000925085915061066c9050565b6103c8576040517f09bde33900000000000000000000000000000000000000000000000000000000815260040160405180910390fd5b6103d186610684565b61041273ffffffffffffffffffffffffffffffffffffffff7f00000000000000000000000000000000000000000000000000000000000000001686866106c3565b838573ffffffffffffffffffffffffffffffffffffffff16877f4ec90e965519d92681267467f775ada5bd214aa92c0dc93d90a5e880ce9ed02660405160405180910390a4505050505050565b610467610755565b7f00000000000000000000000000000000000000000000000000000000000000004210156104c1576040517fee56a2b000000000000000000000000000000000000000000000000000000000815260040160405180910390fd5b6040517f70a082310000000000000000000000000000000000000000000000000000000081523060048201526105b390339073ffffffffffffffffffffffffffffffffffffffff7f000000000000000000000000000000000000000000000000000000000000000016906370a0823190602401602060405180830381865afa158015610551573d6000803e3d6000fd5b505050506040513d601f19601f820116820180604052508101906105759190610b80565b73ffffffffffffffffffffffffffffffffffffffff7f00000000000000000000000000000000000000000000000000000000000000001691906106c3565b565b6105bd610755565b6105b360006107a8565b6000806105d661010084610bc8565b905060006105e661010085610bdc565b60009283526001602081905260409093205492901b9182169091149392505050565b610610610755565b73ffffffffffffffffffffffffffffffffffffffff8116610660576040517f1e4fbdf70000000000000000000000000000000000000000000000000000000081526000600482015260240161028b565b610669816107a8565b50565b600082610679858461081d565b1490505b9392505050565b600061069261010083610bc8565b905060006106a261010084610bdc565b600092835260016020819052604090932080549390911b9092179091555050565b6040805173ffffffffffffffffffffffffffffffffffffffff8416602482015260448082018490528251808303909101815260649091019091526020810180517bffffffffffffffffffffffffffffffffffffffffffffffffffffffff167fa9059cbb0000000000000000000000000000000000000000000000000000000017905261075090849061086a565b505050565b60005473ffffffffffffffffffffffffffffffffffffffff1633146105b3576040517f118cdaa700000000000000000000000000000000000000000000000000000000815233600482015260240161028b565b6000805473ffffffffffffffffffffffffffffffffffffffff8381167fffffffffffffffffffffffff0000000000000000000000000000000000000000831681178455604051919092169283917f8be0079c531659141344cd1fd0a4f28419497f9722a3daafe3b4186f6b6457e09190a35050565b600081815b84518110156108625761084e8286838151811061084157610841610bf0565b6020026020010151610900565b91508061085a81610c1f565b915050610822565b509392505050565b600061088c73ffffffffffffffffffffffffffffffffffffffff84168361092c565b905080516000141580156108b15750808060200190518101906108af9190610c7e565b155b15610750576040517f5274afe700000000000000000000000000000000000000000000000000000000815273ffffffffffffffffffffffffffffffffffffffff8416600482015260240161028b565b600081831061091c57600082815260208490526040902061067d565b5060009182526020526040902090565b606061067d83836000846000808573ffffffffffffffffffffffffffffffffffffffff16848660405161095f9190610ca0565b60006040518083038185875af1925050503d806000811461099c576040519150601f19603f3d011682016040523d82523d6000602084013e6109a1565b606091505b50915091506109b18683836109bb565b9695505050505050565b6060826109d0576109cb82610a4a565b61067d565b81511580156109f4575073ffffffffffffffffffffffffffffffffffffffff84163b155b15610a43576040517f9996b31500000000000000000000000000000000000000000000000000000000815273ffffffffffffffffffffffffffffffffffffffff8516600482015260240161028b565b508061067d565b805115610a5a5780518082602001fd5b6040517f1425ea4200000000000000000000000000000000000000000000000000000000815260040160405180910390fd5b803573ffffffffffffffffffffffffffffffffffffffff81168114610ab057600080fd5b919050565b600080600080600060808688031215610acd57600080fd5b85359450610add60208701610a8c565b935060408601359250606086013567ffffffffffffffff80821115610b0157600080fd5b818801915088601f830112610b1557600080fd5b813581811115610b2457600080fd5b8960208260051b8501011115610b3957600080fd5b9699959850939650602001949392505050565b600060208284031215610b5e57600080fd5b5035919050565b600060208284031215610b7757600080fd5b61067d82610a8c565b600060208284031215610b9257600080fd5b5051919050565b7f4e487b7100000000000000000000000000000000000000000000000000000000600052601260045260246000fd5b600082610bd757610bd7610b99565b500490565b600082610beb57610beb610b99565b500690565b7f4e487b7100000000000000000000000000000000000000000000000000000000600052603260045260246000fd5b60007fffffffffffffffffffffffffffffffffffffffffffffffffffffffffffffffff8203610c77577f4e487b7100000000000000000000000000000000000000000000000000000000600052601160045260246000fd5b5060010190565b600060208284031215610c9057600080fd5b8151801515811461067d57600080fd5b6000825160005b81811015610cc15760208186018101518583015201610ca7565b50600092019182525091905056fea2646970667358221220ffdc6dd0e97b36ee6a33d411ee75b6c2891c4baca31c319d6842d2b3e743ee6b64736f6c63430008140033",
  "linkReferences": {},
  "deployedLinkReferences": {}
}