{
  "_format": "hh-sol-artifact-1",
  "contractName": "DegenAirdrop",
  "sourceName": "contracts/DegenAirdrop.sol",
  "abi": [
    {
      "inputs": [
        {
          "internalType": "address",
          "name": "token_",
          "type": "address"
        },
        {
          "internalType": "bytes32",
          "name": "merkleRoot_",
          "type": "bytes32"
        }
      ],
      "stateMutability": "nonpayable",
      "type": "constructor"
    },
    {
      "inputs": [
        {
          "internalType": "address",
          "name": "target",
          "type": "address"
        }
      ],
      "name": "AddressEmptyCode",
      "type": "error"
    },
    {
      "inputs": [
        {
          "internalType": "address",
          "name": "account",
          "type": "address"
        }
      ],
      "name": "AddressInsufficientBalance",
      "type": "error"
    },
    {
      "inputs": [],
      "name": "AlreadyClaimed",
      "type": "error"
    },
    {
      "inputs": [],
      "name": "FailedInnerCall",
      "type": "error"
    },
    {
      "inputs": [],
      "name": "InvalidProof",
      "type": "error"
    },
    {
      "inputs": [
        {
          "internalType": "address",
          "name": "token",
          "type": "address"
        }
      ],
      "name": "SafeERC20FailedOperation",
      "type": "error"
    },
    {
      "anonymous": false,
      "inputs": [
        {
          "indexed": false,
          "internalType": "uint256",
          "name": "index",
          "type": "uint256"
        },
        {
          "indexed": false,
          "internalType": "address",
          "name": "account",
          "type": "address"
        },
        {
          "indexed": false,
          "internalType": "uint256",
          "name": "amount",
          "type": "uint256"
        }
      ],
      "name": "Claimed",
      "type": "event"
    },
    {
      "inputs": [
        {
          "internalType": "uint256",
          "name": "index",
          "type": "uint256"
        },
        {
          "internalType": "address",
          "name": "account",
          "type": "address"
        },
        {
          "internalType": "uint256",
          "name": "amount",
          "type": "uint256"
        },
        {
          "internalType": "bytes32[]",
          "name": "merkleProof",
          "type": "bytes32[]"
        }
      ],
      "name": "claim",
      "outputs": [],
      "stateMutability": "nonpayable",
      "type": "function"
    },
    {
      "inputs": [
        {
          "internalType": "uint256",
          "name": "index",
          "type": "uint256"
        }
      ],
      "name": "isClaimed",
      "outputs": [
        {
          "internalType": "bool",
          "name": "",
          "type": "bool"
        }
      ],
      "stateMutability": "view",
      "type": "function"
    },
    {
      "inputs": [],
      "name": "merkleRoot",
      "outputs": [
        {
          "internalType": "bytes32",
          "name": "",
          "type": "bytes32"
        }
      ],
      "stateMutability": "view",
      "type": "function"
    },
    {
      "inputs": [],
      "name": "token",
      "outputs": [
        {
          "internalType": "address",
          "name": "",
          "type": "address"
        }
      ],
      "stateMutability": "view",
      "type": "function"
    }
  ],
  "bytecode": "0x60c060405234801561001057600080fd5b5060405161096f38038061096f83398101604081905261002f91610045565b6001600160a01b0390911660805260a05261007f565b6000806040838503121561005857600080fd5b82516001600160a01b038116811461006f57600080fd5b6020939093015192949293505050565b60805160a0516108bf6100b060003960008181606b01526101e201526000818160c8015261026601526108bf6000f3fe608060405234801561001057600080fd5b506004361061004c5760003560e01c80632e7ba6ef146100515780632eb4a7ab146100665780639e34070f146100a0578063fc0c546a146100c3575b600080fd5b61006461005f366004610688565b61010f565b005b61008d7f000000000000000000000000000000000000000000000000000000000000000081565b6040519081526020015b60405180910390f35b6100b36100ae36600461073a565b6102eb565b6040519015158152602001610097565b6100ea7f000000000000000000000000000000000000000000000000000000000000000081565b60405173ffffffffffffffffffffffffffffffffffffffff9091168152602001610097565b610118856102eb565b1561014f576040517f646cf55800000000000000000000000000000000000000000000000000000000815260040160405180910390fd5b60408051602081018790527fffffffffffffffffffffffffffffffffffffffff000000000000000000000000606087901b16918101919091526054810184905260009060740160405160208183030381529060405280519060200120905061020d8383808060200260200160405190810160405280939291908181526020018383602002808284376000920191909152507f0000000000000000000000000000000000000000000000000000000000000000925085915061032c9050565b610243576040517f09bde33900000000000000000000000000000000000000000000000000000000815260040160405180910390fd5b61024c86610344565b61028d73ffffffffffffffffffffffffffffffffffffffff7f0000000000000000000000000000000000000000000000000000000000000000168686610382565b6040805187815273ffffffffffffffffffffffffffffffffffffffff871660208201529081018590527f4ec90e965519d92681267467f775ada5bd214aa92c0dc93d90a5e880ce9ed0269060600160405180910390a1505050505050565b6000806102fa61010084610782565b9050600061030a61010085610796565b60009283526020839052604090922054600190921b9182169091149392505050565b6000826103398584610414565b1490505b9392505050565b600061035261010083610782565b9050600061036261010084610796565b6000928352602083905260409092208054600190931b9092179091555050565b6040805173ffffffffffffffffffffffffffffffffffffffff8416602482015260448082018490528251808303909101815260649091019091526020810180517bffffffffffffffffffffffffffffffffffffffffffffffffffffffff167fa9059cbb0000000000000000000000000000000000000000000000000000000017905261040f908490610461565b505050565b600081815b84518110156104595761044582868381518110610438576104386107aa565b60200260200101516104fc565b915080610451816107d9565b915050610419565b509392505050565b600061048373ffffffffffffffffffffffffffffffffffffffff841683610528565b905080516000141580156104a85750808060200190518101906104a69190610838565b155b1561040f576040517f5274afe700000000000000000000000000000000000000000000000000000000815273ffffffffffffffffffffffffffffffffffffffff841660048201526024015b60405180910390fd5b600081831061051857600082815260208490526040902061033d565b5060009182526020526040902090565b606061033d83836000846000808573ffffffffffffffffffffffffffffffffffffffff16848660405161055b919061085a565b60006040518083038185875af1925050503d8060008114610598576040519150601f19603f3d011682016040523d82523d6000602084013e61059d565b606091505b50915091506105ad8683836105b7565b9695505050505050565b6060826105cc576105c782610646565b61033d565b81511580156105f0575073ffffffffffffffffffffffffffffffffffffffff84163b155b1561063f576040517f9996b31500000000000000000000000000000000000000000000000000000000815273ffffffffffffffffffffffffffffffffffffffff851660048201526024016104f3565b508061033d565b8051156106565780518082602001fd5b6040517f1425ea4200000000000000000000000000000000000000000000000000000000815260040160405180910390fd5b6000806000806000608086880312156106a057600080fd5b85359450602086013573ffffffffffffffffffffffffffffffffffffffff811681146106cb57600080fd5b935060408601359250606086013567ffffffffffffffff808211156106ef57600080fd5b818801915088601f83011261070357600080fd5b81358181111561071257600080fd5b8960208260051b850101111561072757600080fd5b9699959850939650602001949392505050565b60006020828403121561074c57600080fd5b5035919050565b7f4e487b7100000000000000000000000000000000000000000000000000000000600052601260045260246000fd5b60008261079157610791610753565b500490565b6000826107a5576107a5610753565b500690565b7f4e487b7100000000000000000000000000000000000000000000000000000000600052603260045260246000fd5b60007fffffffffffffffffffffffffffffffffffffffffffffffffffffffffffffffff8203610831577f4e487b7100000000000000000000000000000000000000000000000000000000600052601160045260246000fd5b5060010190565b60006020828403121561084a57600080fd5b8151801515811461033d57600080fd5b6000825160005b8181101561087b5760208186018101518583015201610861565b50600092019182525091905056fea2646970667358221220aa6783b0881d755bd27163d30a1dbca79e01a5ac83162edfa84384aaffbabea664736f6c63430008140033",
  "linkReferences": {},
  "deployedLinkReferences": {}
}