{
  "_format": "hh-sol-artifact-1",
  "contractName": "DegenToken",
  "sourceName": "contracts/DegenToken.sol",
  "abi": [
    {
      "inputs": [
        {
          "internalType": "uint256",
          "name": "mintingAllowedAfter_",
          "type": "uint256"
        }
      ],
      "stateMutability": "nonpayable",
      "type": "constructor"
    },
    {
      "inputs": [
        {
          "internalType": "address",
          "name": "spender",
          "type": "address"
        },
        {
          "internalType": "uint256",
          "name": "allowance",
          "type": "uint256"
        },
        {
          "internalType": "uint256",
          "name": "needed",
          "type": "uint256"
        }
      ],
      "name": "ERC20InsufficientAllowance",
      "type": "error"
    },
    {
      "inputs": [
        {
          "internalType": "address",
          "name": "sender",
          "type": "address"
        },
        {
          "internalType": "uint256",
          "name": "balance",
          "type": "uint256"
        },
        {
          "internalType": "uint256",
          "name": "needed",
          "type": "uint256"
        }
      ],
      "name": "ERC20InsufficientBalance",
      "type": "error"
    },
    {
      "inputs": [
        {
          "internalType": "address",
          "name": "approver",
          "type": "address"
        }
      ],
      "name": "ERC20InvalidApprover",
      "type": "error"
    },
    {
      "inputs": [
        {
          "internalType": "address",
          "name": "receiver",
          "type": "address"
        }
      ],
      "name": "ERC20InvalidReceiver",
      "type": "error"
    },
    {
      "inputs": [
        {
          "internalType": "address",
          "name": "sender",
          "type": "address"
        }
      ],
      "name": "ERC20InvalidSender",
      "type": "error"
    },
    {
      "inputs": [
        {
          "internalType": "address",
          "name": "spender",
          "type": "address"
        }
      ],
      "name": "ERC20InvalidSpender",
      "type": "error"
    },
    {
      "inputs": [
        {
          "internalType": "address",
          "name": "owner",
          "type": "address"
        }
      ],
      "name": "OwnableInvalidOwner",
      "type": "error"
    },
    {
      "inputs": [
        {
          "internalType": "address",
          "name": "account",
          "type": "address"
        }
      ],
      "name": "OwnableUnauthorizedAccount",
      "type": "error"
    },
    {
      "anonymous": false,
      "inputs": [
        {
          "indexed": true,
          "internalType": "address",
          "name": "owner",
          "type": "address"
        },
        {
          "indexed": true,
          "internalType": "address",
          "name": "spender",
          "type": "address"
        },
        {
          "indexed": false,
          "internalType": "uint256",
          "name": "value",
          "type": "uint256"
        }
      ],
      "name": "Approval",
      "type": "event"
    },
    {
      "anonymous": false,
      "inputs": [
        {
          "indexed": true,
          "internalType": "address",
          "name": "previousOwner",
          "type": "address"
        },
        {
          "indexed": true,
          "internalType": "address",
          "name": "newOwner",
          "type": "address"
        }
      ],
      "name": "OwnershipTransferred",
      "type": "event"
    },
    {
      "anonymous": false,
      "inputs": [
        {
          "indexed": true,
          "internalType": "address",
          "name": "from",
          "type": "address"
        },
        {
          "indexed": true,
          "internalType": "address",
          "name": "to",
          "type": "address"
        },
        {
          "indexed": false,
          "internalType": "uint256",
          "name": "value",
          "type": "uint256"
        }
      ],
      "name": "Transfer",
      "type": "event"
    },
    {
      "inputs": [],
      "name": "TOKEN_NAME",
      "outputs": [
        {
          "internalType": "string",
          "name": "",
          "type": "string"
        }
      ],
      "stateMutability": "view",
      "type": "function"
    },
    {
      "inputs": [],
      "name": "TOKEN_SUPPLY",
      "outputs": [
        {
          "internalType": "uint256",
          "name": "",
          "type": "uint256"
        }
      ],
      "stateMutability": "view",
      "type": "function"
    },
    {
      "inputs": [],
      "name": "TOKEN_SYMBOL",
      "outputs": [
        {
          "internalType": "string",
          "name": "",
          "type": "string"
        }
      ],
      "stateMutability": "view",
      "type": "function"
    },
    {
      "inputs": [
        {
          "internalType": "address",
          "name": "owner",
          "type": "address"
        },
        {
          "internalType": "address",
          "name": "spender",
          "type": "address"
        }
      ],
      "name": "allowance",
      "outputs": [
        {
          "internalType": "uint256",
          "name": "",
          "type": "uint256"
        }
      ],
      "stateMutability": "view",
      "type": "function"
    },
    {
      "inputs": [
        {
          "internalType": "address",
          "name": "spender",
          "type": "address"
        },
        {
          "internalType": "uint256",
          "name": "value",
          "type": "uint256"
        }
      ],
      "name": "approve",
      "outputs": [
        {
          "internalType": "bool",
          "name": "",
          "type": "bool"
        }
      ],
      "stateMutability": "nonpayable",
      "type": "function"
    },
    {
      "inputs": [
        {
          "internalType": "address",
          "name": "account",
          "type": "address"
        }
      ],
      "name": "balanceOf",
      "outputs": [
        {
          "internalType": "uint256",
          "name": "",
          "type": "uint256"
        }
      ],
      "stateMutability": "view",
      "type": "function"
    },
    {
      "inputs": [
        {
          "internalType": "uint256",
          "name": "value",
          "type": "uint256"
        }
      ],
      "name": "burn",
      "outputs": [],
      "stateMutability": "nonpayable",
      "type": "function"
    },
    {
      "inputs": [
        {
          "internalType": "address",
          "name": "account",
          "type": "address"
        },
        {
          "internalType": "uint256",
          "name": "value",
          "type": "uint256"
        }
      ],
      "name": "burnFrom",
      "outputs": [],
      "stateMutability": "nonpayable",
      "type": "function"
    },
    {
      "inputs": [],
      "name": "decimals",
      "outputs": [
        {
          "internalType": "uint8",
          "name": "",
          "type": "uint8"
        }
      ],
      "stateMutability": "view",
      "type": "function"
    },
    {
      "inputs": [],
      "name": "minimumTimeBetweenMints",
      "outputs": [
        {
          "internalType": "uint32",
          "name": "",
          "type": "uint32"
        }
      ],
      "stateMutability": "view",
      "type": "function"
    },
    {
      "inputs": [
        {
          "internalType": "address",
          "name": "to",
          "type": "address"
        },
        {
          "internalType": "uint96",
          "name": "amount",
          "type": "uint96"
        }
      ],
      "name": "mint",
      "outputs": [],
      "stateMutability": "nonpayable",
      "type": "function"
    },
    {
      "inputs": [],
      "name": "mintCap",
      "outputs": [
        {
          "internalType": "uint8",
          "name": "",
          "type": "uint8"
        }
      ],
      "stateMutability": "view",
      "type": "function"
    },
    {
      "inputs": [],
      "name": "mintingAllowedAfter",
      "outputs": [
        {
          "internalType": "uint256",
          "name": "",
          "type": "uint256"
        }
      ],
      "stateMutability": "view",
      "type": "function"
    },
    {
      "inputs": [],
      "name": "name",
      "outputs": [
        {
          "internalType": "string",
          "name": "",
          "type": "string"
        }
      ],
      "stateMutability": "view",
      "type": "function"
    },
    {
      "inputs": [],
      "name": "owner",
      "outputs": [
        {
          "internalType": "address",
          "name": "",
          "type": "address"
        }
      ],
      "stateMutability": "view",
      "type": "function"
    },
    {
      "inputs": [],
      "name": "renounceOwnership",
      "outputs": [],
      "stateMutability": "nonpayable",
      "type": "function"
    },
    {
      "inputs": [],
      "name": "symbol",
      "outputs": [
        {
          "internalType": "string",
          "name": "",
          "type": "string"
        }
      ],
      "stateMutability": "view",
      "type": "function"
    },
    {
      "inputs": [],
      "name": "totalSupply",
      "outputs": [
        {
          "internalType": "uint256",
          "name": "",
          "type": "uint256"
        }
      ],
      "stateMutability": "view",
      "type": "function"
    },
    {
      "inputs": [
        {
          "internalType": "address",
          "name": "to",
          "type": "address"
        },
        {
          "internalType": "uint256",
          "name": "value",
          "type": "uint256"
        }
      ],
      "name": "transfer",
      "outputs": [
        {
          "internalType": "bool",
          "name": "",
          "type": "bool"
        }
      ],
      "stateMutability": "nonpayable",
      "type": "function"
    },
    {
      "inputs": [
        {
          "internalType": "address",
          "name": "from",
          "type": "address"
        },
        {
          "internalType": "address",
          "name": "to",
          "type": "address"
        },
        {
          "internalType": "uint256",
          "name": "value",
          "type": "uint256"
        }
      ],
      "name": "transferFrom",
      "outputs": [
        {
          "internalType": "bool",
          "name": "",
          "type": "bool"
        }
      ],
      "stateMutability": "nonpayable",
      "type": "function"
    },
    {
      "inputs": [
        {
          "internalType": "address",
          "name": "newOwner",
          "type": "address"
        }
      ],
      "name": "transferOwnership",
      "outputs": [],
      "stateMutability": "nonpayable",
      "type": "function"
    }
  ],
  "bytecode": "0x60806040523480156200001157600080fd5b50604051620016503803806200165083398101604081905262000034916200033e565b33604051806040016040528060058152602001642232b3b2b760d91b815250604051806040016040528060058152602001642222a3a2a760d91b8152508160039081620000829190620003fd565b506004620000918282620003fd565b5050506001600160a01b038116620000c457604051631e4fbdf760e01b8152600060048201526024015b60405180910390fd5b620000cf816200017b565b5042811015620001485760405162461bcd60e51b815260206004820152603b60248201527f446567656e3a3a636f6e7374727563746f723a206d696e74696e672063616e2060448201527f6f6e6c7920626567696e206166746572206465706c6f796d656e7400000000006064820152608401620000bb565b62000172336200015b6012600a620005de565b6200016c906401a13b8600620005f6565b620001cd565b60065562000626565b600580546001600160a01b038381166001600160a01b0319831681179093556040519116919082907f8be0079c531659141344cd1fd0a4f28419497f9722a3daafe3b4186f6b6457e090600090a35050565b6001600160a01b038216620001f95760405163ec442f0560e01b815260006004820152602401620000bb565b62000207600083836200020b565b5050565b6001600160a01b0383166200023a5780600260008282546200022e919062000610565b90915550620002ae9050565b6001600160a01b038316600090815260208190526040902054818110156200028f5760405163391434e360e21b81526001600160a01b03851660048201526024810182905260448101839052606401620000bb565b6001600160a01b03841660009081526020819052604090209082900390555b6001600160a01b038216620002cc57600280548290039055620002eb565b6001600160a01b03821660009081526020819052604090208054820190555b816001600160a01b0316836001600160a01b03167fddf252ad1be2c89b69c2b068fc378daa952ba7f163c4a11628f55a4df523b3ef836040516200033191815260200190565b60405180910390a3505050565b6000602082840312156200035157600080fd5b5051919050565b634e487b7160e01b600052604160045260246000fd5b600181811c908216806200038357607f821691505b602082108103620003a457634e487b7160e01b600052602260045260246000fd5b50919050565b601f821115620003f857600081815260208120601f850160051c81016020861015620003d35750805b601f850160051c820191505b81811015620003f457828155600101620003df565b5050505b505050565b81516001600160401b0381111562000419576200041962000358565b62000431816200042a84546200036e565b84620003aa565b602080601f831160018114620004695760008415620004505750858301515b600019600386901b1c1916600185901b178555620003f4565b600085815260208120601f198616915b828110156200049a5788860151825594840194600190910190840162000479565b5085821015620004b95787850151600019600388901b60f8161c191681555b5050505050600190811b01905550565b634e487b7160e01b600052601160045260246000fd5b600181815b8085111562000520578160001904821115620005045762000504620004c9565b808516156200051257918102915b93841c9390800290620004e4565b509250929050565b6000826200053957506001620005d8565b816200054857506000620005d8565b81600181146200056157600281146200056c576200058c565b6001915050620005d8565b60ff841115620005805762000580620004c9565b50506001821b620005d8565b5060208310610133831016604e8410600b8410161715620005b1575081810a620005d8565b620005bd8383620004df565b8060001904821115620005d457620005d4620004c9565b0290505b92915050565b6000620005ef60ff84168362000528565b9392505050565b8082028115828204841417620005d857620005d8620004c9565b80820180821115620005d857620005d8620004c9565b61101a80620006366000396000f3fe608060405234801561001057600080fd5b50600436106101775760003560e01c80635c11d62f116100d85780638da5cb5b1161008c578063b152f6cf11610066578063b152f6cf1461035c578063dd62ed3e14610368578063f2fde38b146103ae57600080fd5b80638da5cb5b1461031957806395d89b4114610341578063a9059cbb1461034957600080fd5b8063715018a6116100bd578063715018a6146102f657806376c71ca1146102fe57806379cc67901461030657600080fd5b80635c11d62f146102a057806370a08231146102c057600080fd5b806323b872dd1161012f57806330b36cef1161011457806330b36cef1461026f578063313ce5671461027857806342966c681461028d57600080fd5b806323b872dd146102205780632a9053181461023357600080fd5b806318160ddd1161016057806318160ddd146101bd57806318821400146101cf5780631b025a401461020b57600080fd5b806306fdde031461017c578063095ea7b31461019a575b600080fd5b6101846103c1565b6040516101919190610d4c565b60405180910390f35b6101ad6101a8366004610de1565b610453565b6040519015158152602001610191565b6002545b604051908152602001610191565b6101846040518060400160405280600581526020017f446567656e00000000000000000000000000000000000000000000000000000081525081565b61021e610219366004610e0b565b61046d565b005b6101ad61022e366004610e53565b610673565b6101846040518060400160405280600581526020017f444547454e00000000000000000000000000000000000000000000000000000081525081565b6101c160065481565b60125b60405160ff9091168152602001610191565b61021e61029b366004610e8f565b610697565b6102ab6301e1338081565b60405163ffffffff9091168152602001610191565b6101c16102ce366004610ea8565b73ffffffffffffffffffffffffffffffffffffffff1660009081526020819052604090205490565b61021e6106a4565b61027b600181565b61021e610314366004610de1565b6106b8565b60055460405173ffffffffffffffffffffffffffffffffffffffff9091168152602001610191565b6101846106cd565b6101ad610357366004610de1565b6106dc565b6101c16401a13b860081565b6101c1610376366004610eca565b73ffffffffffffffffffffffffffffffffffffffff918216600090815260016020908152604080832093909416825291909152205490565b61021e6103bc366004610ea8565b6106ea565b6060600380546103d090610efd565b80601f01602080910402602001604051908101604052809291908181526020018280546103fc90610efd565b80156104495780601f1061041e57610100808354040283529160200191610449565b820191906000526020600020905b81548152906001019060200180831161042c57829003601f168201915b5050505050905090565b60003361046181858561074b565b60019150505b92915050565b61047561075d565b60065442101561050b576040517f08c379a0000000000000000000000000000000000000000000000000000000008152602060048201526024808201527f446567656e3a3a6d696e743a206d696e74696e67206e6f7420616c6c6f77656460448201527f207965740000000000000000000000000000000000000000000000000000000060648201526084015b60405180910390fd5b73ffffffffffffffffffffffffffffffffffffffff82166105ae576040517f08c379a000000000000000000000000000000000000000000000000000000000815260206004820152603060248201527f446567656e3a3a6d696e743a2063616e6e6f74207472616e7366657220746f2060448201527f746865207a65726f2061646472657373000000000000000000000000000000006064820152608401610502565b6105bc6301e1338042610f7f565b600655606460016105cc60025490565b6105d69190610f92565b6105e09190610fa9565b816bffffffffffffffffffffffff161115610657576040517f08c379a000000000000000000000000000000000000000000000000000000000815260206004820152601e60248201527f446567656e3a3a6d696e743a206578636565646564206d696e742063617000006044820152606401610502565b61066f82826bffffffffffffffffffffffff166107b0565b5050565b60003361068185828561080c565b61068c8585856108db565b506001949350505050565b6106a13382610986565b50565b6106ac61075d565b6106b660006109e2565b565b6106c382338361080c565b61066f8282610986565b6060600480546103d090610efd565b6000336104618185856108db565b6106f261075d565b73ffffffffffffffffffffffffffffffffffffffff8116610742576040517f1e4fbdf700000000000000000000000000000000000000000000000000000000815260006004820152602401610502565b6106a1816109e2565b6107588383836001610a59565b505050565b60055473ffffffffffffffffffffffffffffffffffffffff1633146106b6576040517f118cdaa7000000000000000000000000000000000000000000000000000000008152336004820152602401610502565b73ffffffffffffffffffffffffffffffffffffffff8216610800576040517fec442f0500000000000000000000000000000000000000000000000000000000815260006004820152602401610502565b61066f60008383610ba1565b73ffffffffffffffffffffffffffffffffffffffff8381166000908152600160209081526040808320938616835292905220547fffffffffffffffffffffffffffffffffffffffffffffffffffffffffffffffff81146108d557818110156108c6576040517ffb8f41b200000000000000000000000000000000000000000000000000000000815273ffffffffffffffffffffffffffffffffffffffff841660048201526024810182905260448101839052606401610502565b6108d584848484036000610a59565b50505050565b73ffffffffffffffffffffffffffffffffffffffff831661092b576040517f96c6fd1e00000000000000000000000000000000000000000000000000000000815260006004820152602401610502565b73ffffffffffffffffffffffffffffffffffffffff821661097b576040517fec442f0500000000000000000000000000000000000000000000000000000000815260006004820152602401610502565b610758838383610ba1565b73ffffffffffffffffffffffffffffffffffffffff82166109d6576040517f96c6fd1e00000000000000000000000000000000000000000000000000000000815260006004820152602401610502565b61066f82600083610ba1565b6005805473ffffffffffffffffffffffffffffffffffffffff8381167fffffffffffffffffffffffff0000000000000000000000000000000000000000831681179093556040519116919082907f8be0079c531659141344cd1fd0a4f28419497f9722a3daafe3b4186f6b6457e090600090a35050565b73ffffffffffffffffffffffffffffffffffffffff8416610aa9576040517fe602df0500000000000000000000000000000000000000000000000000000000815260006004820152602401610502565b73ffffffffffffffffffffffffffffffffffffffff8316610af9576040517f94280d6200000000000000000000000000000000000000000000000000000000815260006004820152602401610502565b73ffffffffffffffffffffffffffffffffffffffff808516600090815260016020908152604080832093871683529290522082905580156108d5578273ffffffffffffffffffffffffffffffffffffffff168473ffffffffffffffffffffffffffffffffffffffff167f8c5be1e5ebec7d5bd14f71427d1e84f3dd0314c0f7b2291e5b200ac8c7c3b92584604051610b9391815260200190565b60405180910390a350505050565b73ffffffffffffffffffffffffffffffffffffffff8316610bd9578060026000828254610bce9190610f7f565b90915550610c8b9050565b73ffffffffffffffffffffffffffffffffffffffff831660009081526020819052604090205481811015610c5f576040517fe450d38c00000000000000000000000000000000000000000000000000000000815273ffffffffffffffffffffffffffffffffffffffff851660048201526024810182905260448101839052606401610502565b73ffffffffffffffffffffffffffffffffffffffff841660009081526020819052604090209082900390555b73ffffffffffffffffffffffffffffffffffffffff8216610cb457600280548290039055610ce0565b73ffffffffffffffffffffffffffffffffffffffff821660009081526020819052604090208054820190555b8173ffffffffffffffffffffffffffffffffffffffff168373ffffffffffffffffffffffffffffffffffffffff167fddf252ad1be2c89b69c2b068fc378daa952ba7f163c4a11628f55a4df523b3ef83604051610d3f91815260200190565b60405180910390a3505050565b600060208083528351808285015260005b81811015610d7957858101830151858201604001528201610d5d565b5060006040828601015260407fffffffffffffffffffffffffffffffffffffffffffffffffffffffffffffffe0601f8301168501019250505092915050565b803573ffffffffffffffffffffffffffffffffffffffff81168114610ddc57600080fd5b919050565b60008060408385031215610df457600080fd5b610dfd83610db8565b946020939093013593505050565b60008060408385031215610e1e57600080fd5b610e2783610db8565b915060208301356bffffffffffffffffffffffff81168114610e4857600080fd5b809150509250929050565b600080600060608486031215610e6857600080fd5b610e7184610db8565b9250610e7f60208501610db8565b9150604084013590509250925092565b600060208284031215610ea157600080fd5b5035919050565b600060208284031215610eba57600080fd5b610ec382610db8565b9392505050565b60008060408385031215610edd57600080fd5b610ee683610db8565b9150610ef460208401610db8565b90509250929050565b600181811c90821680610f1157607f821691505b602082108103610f4a577f4e487b7100000000000000000000000000000000000000000000000000000000600052602260045260246000fd5b50919050565b7f4e487b7100000000000000000000000000000000000000000000000000000000600052601160045260246000fd5b8082018082111561046757610467610f50565b808202811582820484141761046757610467610f50565b600082610fdf577f4e487b7100000000000000000000000000000000000000000000000000000000600052601260045260246000fd5b50049056fea2646970667358221220d3760186b73d87ec11425b730585d3d7127935a3c2600fdfd0f598421c1aa0c364736f6c63430008140033",
  "linkReferences": {},
  "deployedLinkReferences": {}
}